{
  "_format": "hh-sol-artifact-1",
  "contractName": "ArbitrageBot",
  "sourceName": "contracts/ArbitrageBot.sol",
  "abi": [
    {
      "inputs": [
        {
          "internalType": "address",
          "name": "_vault",
          "type": "address"
        },
        {
          "internalType": "address",
          "name": "_profitRecipitent",
          "type": "address"
        }
      ],
      "stateMutability": "nonpayable",
      "type": "constructor"
    },
    {
      "anonymous": false,
      "inputs": [
        {
          "indexed": true,
          "internalType": "address",
          "name": "previousOwner",
          "type": "address"
        },
        {
          "indexed": true,
          "internalType": "address",
          "name": "newOwner",
          "type": "address"
        }
      ],
      "name": "OwnershipTransferred",
      "type": "event"
    },
    {
      "inputs": [],
      "name": "owner",
      "outputs": [
        {
          "internalType": "address",
          "name": "",
          "type": "address"
        }
      ],
      "stateMutability": "view",
      "type": "function"
    },
    {
      "inputs": [],
      "name": "profitRecipitent",
      "outputs": [
        {
          "internalType": "address",
          "name": "",
          "type": "address"
        }
      ],
      "stateMutability": "view",
      "type": "function"
    },
    {
      "inputs": [
        {
          "internalType": "contract IERC20[]",
          "name": "tokens",
          "type": "address[]"
        },
        {
          "internalType": "uint256[]",
          "name": "amounts",
          "type": "uint256[]"
        },
        {
          "internalType": "uint256[]",
          "name": "feeAmounts",
          "type": "uint256[]"
        },
        {
          "internalType": "bytes",
          "name": "userData",
          "type": "bytes"
        }
      ],
      "name": "receiveFlashLoan",
      "outputs": [],
      "stateMutability": "nonpayable",
      "type": "function"
    },
    {
      "inputs": [],
      "name": "renounceOwnership",
      "outputs": [],
      "stateMutability": "nonpayable",
      "type": "function"
    },
    {
      "inputs": [
        {
          "internalType": "address",
          "name": "tokenBorrow",
          "type": "address"
        },
        {
          "internalType": "uint256",
          "name": "amountBorrow",
          "type": "uint256"
        },
        {
          "internalType": "address[]",
          "name": "path1",
          "type": "address[]"
        },
        {
          "internalType": "address[]",
          "name": "path2",
          "type": "address[]"
        },
        {
          "internalType": "address[]",
          "name": "dexPath",
          "type": "address[]"
        }
      ],
      "name": "startArbitrage",
      "outputs": [],
      "stateMutability": "nonpayable",
      "type": "function"
    },
    {
      "inputs": [
        {
          "internalType": "address",
          "name": "newOwner",
          "type": "address"
        }
      ],
      "name": "transferOwnership",
      "outputs": [],
      "stateMutability": "nonpayable",
      "type": "function"
    },
    {
      "inputs": [],
      "name": "vault",
      "outputs": [
        {
          "internalType": "contract IVault",
          "name": "",
          "type": "address"
        }
      ],
      "stateMutability": "view",
      "type": "function"
    },
    {
      "inputs": [
        {
          "internalType": "contract IERC20",
          "name": "token",
          "type": "address"
        }
      ],
      "name": "withdrawProfit",
      "outputs": [],
      "stateMutability": "nonpayable",
      "type": "function"
    }
  ],
  "bytecode": "0x60806040523480156200001157600080fd5b5060405162001f4138038062001f41833981810160405281019062000037919062000217565b620000576200004b620000e160201b60201c565b620000e960201b60201c565b81600260006101000a81548173ffffffffffffffffffffffffffffffffffffffff021916908373ffffffffffffffffffffffffffffffffffffffff16021790555080600160006101000a81548173ffffffffffffffffffffffffffffffffffffffff021916908373ffffffffffffffffffffffffffffffffffffffff16021790555050506200025e565b600033905090565b60008060009054906101000a900473ffffffffffffffffffffffffffffffffffffffff169050816000806101000a81548173ffffffffffffffffffffffffffffffffffffffff021916908373ffffffffffffffffffffffffffffffffffffffff1602179055508173ffffffffffffffffffffffffffffffffffffffff168173ffffffffffffffffffffffffffffffffffffffff167f8be0079c531659141344cd1fd0a4f28419497f9722a3daafe3b4186f6b6457e060405160405180910390a35050565b600080fd5b600073ffffffffffffffffffffffffffffffffffffffff82169050919050565b6000620001df82620001b2565b9050919050565b620001f181620001d2565b8114620001fd57600080fd5b50565b6000815190506200021181620001e6565b92915050565b60008060408385031215620002315762000230620001ad565b5b6000620002418582860162000200565b9250506020620002548582860162000200565b9150509250929050565b611cd3806200026e6000396000f3fe608060405234801561001057600080fd5b50600436106100875760003560e01c80638da5cb5b1161005b5780638da5cb5b146100ec578063f04f27071461010a578063f2fde38b14610126578063fbfa77cf1461014257610087565b8062affb731461008c57806317c7c23a146100aa57806324e26241146100c6578063715018a6146100e2575b600080fd5b610094610160565b6040516100a19190610c03565b60405180910390f35b6100c460048036038101906100bf9190610cf9565b610186565b005b6100e060048036038101906100db9190610e13565b6102da565b005b6100ea6103ff565b005b6100f4610413565b6040516101019190610c03565b60405180910390f35b610124600480360381019061011f9190611107565b61043c565b005b610140600480360381019061013b91906111de565b6105f8565b005b61014a61067b565b604051610157919061126a565b60405180910390f35b600160009054906101000a900473ffffffffffffffffffffffffffffffffffffffff1681565b61018e6106a1565b6000600167ffffffffffffffff8111156101ab576101aa610e51565b5b6040519080825280602002602001820160405280156101d95781602001602082028036833780820191505090505b5090506000600167ffffffffffffffff8111156101f9576101f8610e51565b5b6040519080825280602002602001820160405280156102275781602001602082028036833780820191505090505b509050898260008151811061023f5761023e611285565b5b602002602001019073ffffffffffffffffffffffffffffffffffffffff16908173ffffffffffffffffffffffffffffffffffffffff1681525050888160008151811061028e5761028d611285565b5b6020026020010181815250506102ce82828a8a8a8a8a8a6040516020016102ba96959493929190611377565b60405160208183030381529060405261071f565b50505050505050505050565b6102e26106a1565b8073ffffffffffffffffffffffffffffffffffffffff1663a9059cbb600160009054906101000a900473ffffffffffffffffffffffffffffffffffffffff168373ffffffffffffffffffffffffffffffffffffffff166370a08231306040518263ffffffff1660e01b815260040161035a9190610c03565b602060405180830381865afa158015610377573d6000803e3d6000fd5b505050506040513d601f19601f8201168201806040525081019061039b91906113de565b6040518363ffffffff1660e01b81526004016103b892919061141a565b6020604051808303816000875af11580156103d7573d6000803e3d6000fd5b505050506040513d601f19601f820116820180604052508101906103fb919061147b565b5050565b6104076106a1565b61041160006107b7565b565b60008060009054906101000a900473ffffffffffffffffffffffffffffffffffffffff16905090565b600260009054906101000a900473ffffffffffffffffffffffffffffffffffffffff1673ffffffffffffffffffffffffffffffffffffffff163373ffffffffffffffffffffffffffffffffffffffff16146104cc576040517f08c379a00000000000000000000000000000000000000000000000000000000081526004016104c39061152b565b60405180910390fd5b6000806000838060200190518101906104e59190611623565b92509250925060008660008151811061050157610500611285565b5b602002602001015190506105178484848461087b565b8760008151811061052b5761052a611285565b5b602002602001015173ffffffffffffffffffffffffffffffffffffffff1663a9059cbb600260009054906101000a900473ffffffffffffffffffffffffffffffffffffffff168960008151811061058557610584611285565b5b60200260200101516040518363ffffffff1660e01b81526004016105aa92919061141a565b6020604051808303816000875af11580156105c9573d6000803e3d6000fd5b505050506040513d601f19601f820116820180604052508101906105ed919061147b565b505050505050505050565b6106006106a1565b600073ffffffffffffffffffffffffffffffffffffffff168173ffffffffffffffffffffffffffffffffffffffff160361066f576040517f08c379a00000000000000000000000000000000000000000000000000000000081526004016106669061173c565b60405180910390fd5b610678816107b7565b50565b600260009054906101000a900473ffffffffffffffffffffffffffffffffffffffff1681565b6106a9610bba565b73ffffffffffffffffffffffffffffffffffffffff166106c7610413565b73ffffffffffffffffffffffffffffffffffffffff161461071d576040517f08c379a0000000000000000000000000000000000000000000000000000000008152600401610714906117a8565b60405180910390fd5b565b600260009054906101000a900473ffffffffffffffffffffffffffffffffffffffff1673ffffffffffffffffffffffffffffffffffffffff16635c38449e308585856040518563ffffffff1660e01b815260040161078094939291906119e5565b600060405180830381600087803b15801561079a57600080fd5b505af11580156107ae573d6000803e3d6000fd5b50505050505050565b60008060009054906101000a900473ffffffffffffffffffffffffffffffffffffffff169050816000806101000a81548173ffffffffffffffffffffffffffffffffffffffff021916908373ffffffffffffffffffffffffffffffffffffffff1602179055508173ffffffffffffffffffffffffffffffffffffffff168173ffffffffffffffffffffffffffffffffffffffff167f8be0079c531659141344cd1fd0a4f28419497f9722a3daafe3b4186f6b6457e060405160405180910390a35050565b60006104b04261088b9190611a6e565b90506000836000815181106108a3576108a2611285565b5b602002602001015190506000846001815181106108c3576108c2611285565b5b60200260200101519050866000815181106108e1576108e0611285565b5b602002602001015173ffffffffffffffffffffffffffffffffffffffff1663095ea7b383866040518363ffffffff1660e01b815260040161092392919061141a565b6020604051808303816000875af1158015610942573d6000803e3d6000fd5b505050506040513d601f19601f82011682018060405250810190610966919061147b565b508173ffffffffffffffffffffffffffffffffffffffff166338ed17398560018a30886040518663ffffffff1660e01b81526004016109a9959493929190611b63565b6000604051808303816000875af11580156109c8573d6000803e3d6000fd5b505050506040513d6000823e3d601f19601f820116820180604052508101906109f19190611c54565b50600087600181518110610a0857610a07611285565b5b602002602001015173ffffffffffffffffffffffffffffffffffffffff166370a08231306040518263ffffffff1660e01b8152600401610a489190610c03565b602060405180830381865afa158015610a65573d6000803e3d6000fd5b505050506040513d601f19601f82011682018060405250810190610a8991906113de565b905086600081518110610a9f57610a9e611285565b5b602002602001015173ffffffffffffffffffffffffffffffffffffffff1663095ea7b383836040518363ffffffff1660e01b8152600401610ae192919061141a565b6020604051808303816000875af1158015610b00573d6000803e3d6000fd5b505050506040513d601f19601f82011682018060405250810190610b24919061147b565b508173ffffffffffffffffffffffffffffffffffffffff166338ed17398260018a30896040518663ffffffff1660e01b8152600401610b67959493929190611b63565b6000604051808303816000875af1158015610b86573d6000803e3d6000fd5b505050506040513d6000823e3d601f19601f82011682018060405250810190610baf9190611c54565b505050505050505050565b600033905090565b600073ffffffffffffffffffffffffffffffffffffffff82169050919050565b6000610bed82610bc2565b9050919050565b610bfd81610be2565b82525050565b6000602082019050610c186000830184610bf4565b92915050565b6000604051905090565b600080fd5b600080fd5b610c3b81610be2565b8114610c4657600080fd5b50565b600081359050610c5881610c32565b92915050565b6000819050919050565b610c7181610c5e565b8114610c7c57600080fd5b50565b600081359050610c8e81610c68565b92915050565b600080fd5b600080fd5b600080fd5b60008083601f840112610cb957610cb8610c94565b5b8235905067ffffffffffffffff811115610cd657610cd5610c99565b5b602083019150836020820283011115610cf257610cf1610c9e565b5b9250929050565b60008060008060008060008060a0898b031215610d1957610d18610c28565b5b6000610d278b828c01610c49565b9850506020610d388b828c01610c7f565b975050604089013567ffffffffffffffff811115610d5957610d58610c2d565b5b610d658b828c01610ca3565b9650965050606089013567ffffffffffffffff811115610d8857610d87610c2d565b5b610d948b828c01610ca3565b9450945050608089013567ffffffffffffffff811115610db757610db6610c2d565b5b610dc38b828c01610ca3565b92509250509295985092959890939650565b6000610de082610be2565b9050919050565b610df081610dd5565b8114610dfb57600080fd5b50565b600081359050610e0d81610de7565b92915050565b600060208284031215610e2957610e28610c28565b5b6000610e3784828501610dfe565b91505092915050565b6000601f19601f8301169050919050565b7f4e487b7100000000000000000000000000000000000000000000000000000000600052604160045260246000fd5b610e8982610e40565b810181811067ffffffffffffffff82111715610ea857610ea7610e51565b5b80604052505050565b6000610ebb610c1e565b9050610ec78282610e80565b919050565b600067ffffffffffffffff821115610ee757610ee6610e51565b5b602082029050602081019050919050565b6000610f0b610f0684610ecc565b610eb1565b90508083825260208201905060208402830185811115610f2e57610f2d610c9e565b5b835b81811015610f575780610f438882610dfe565b845260208401935050602081019050610f30565b5050509392505050565b600082601f830112610f7657610f75610c94565b5b8135610f86848260208601610ef8565b91505092915050565b600067ffffffffffffffff821115610faa57610fa9610e51565b5b602082029050602081019050919050565b6000610fce610fc984610f8f565b610eb1565b90508083825260208201905060208402830185811115610ff157610ff0610c9e565b5b835b8181101561101a57806110068882610c7f565b845260208401935050602081019050610ff3565b5050509392505050565b600082601f83011261103957611038610c94565b5b8135611049848260208601610fbb565b91505092915050565b600080fd5b600067ffffffffffffffff82111561107257611071610e51565b5b61107b82610e40565b9050602081019050919050565b82818337600083830152505050565b60006110aa6110a584611057565b610eb1565b9050828152602081018484840111156110c6576110c5611052565b5b6110d1848285611088565b509392505050565b600082601f8301126110ee576110ed610c94565b5b81356110fe848260208601611097565b91505092915050565b6000806000806080858703121561112157611120610c28565b5b600085013567ffffffffffffffff81111561113f5761113e610c2d565b5b61114b87828801610f61565b945050602085013567ffffffffffffffff81111561116c5761116b610c2d565b5b61117887828801611024565b935050604085013567ffffffffffffffff81111561119957611198610c2d565b5b6111a587828801611024565b925050606085013567ffffffffffffffff8111156111c6576111c5610c2d565b5b6111d2878288016110d9565b91505092959194509250565b6000602082840312156111f4576111f3610c28565b5b600061120284828501610c49565b91505092915050565b6000819050919050565b600061123061122b61122684610bc2565b61120b565b610bc2565b9050919050565b600061124282611215565b9050919050565b600061125482611237565b9050919050565b61126481611249565b82525050565b600060208201905061127f600083018461125b565b92915050565b7f4e487b7100000000000000000000000000000000000000000000000000000000600052603260045260246000fd5b600082825260208201905092915050565b6000819050919050565b6112d881610be2565b82525050565b60006112ea83836112cf565b60208301905092915050565b60006113056020840184610c49565b905092915050565b6000602082019050919050565b600061132683856112b4565b9350611331826112c5565b8060005b8581101561136a5761134782846112f6565b61135188826112de565b975061135c8361130d565b925050600181019050611335565b5085925050509392505050565b6000606082019050818103600083015261139281888a61131a565b905081810360208301526113a781868861131a565b905081810360408301526113bc81848661131a565b9050979650505050505050565b6000815190506113d881610c68565b92915050565b6000602082840312156113f4576113f3610c28565b5b6000611402848285016113c9565b91505092915050565b61141481610c5e565b82525050565b600060408201905061142f6000830185610bf4565b61143c602083018461140b565b9392505050565b60008115159050919050565b61145881611443565b811461146357600080fd5b50565b6000815190506114758161144f565b92915050565b60006020828403121561149157611490610c28565b5b600061149f84828501611466565b91505092915050565b600082825260208201905092915050565b7f4d6573736167652073656e646572206d7573742062652042616c616e6365722060008201527f5661756c74210000000000000000000000000000000000000000000000000000602082015250565b60006115156026836114a8565b9150611520826114b9565b604082019050919050565b6000602082019050818103600083015261154481611508565b9050919050565b600067ffffffffffffffff82111561156657611565610e51565b5b602082029050602081019050919050565b60008151905061158681610c32565b92915050565b600061159f61159a8461154b565b610eb1565b905080838252602082019050602084028301858111156115c2576115c1610c9e565b5b835b818110156115eb57806115d78882611577565b8452602084019350506020810190506115c4565b5050509392505050565b600082601f83011261160a57611609610c94565b5b815161161a84826020860161158c565b91505092915050565b60008060006060848603121561163c5761163b610c28565b5b600084015167ffffffffffffffff81111561165a57611659610c2d565b5b611666868287016115f5565b935050602084015167ffffffffffffffff81111561168757611686610c2d565b5b611693868287016115f5565b925050604084015167ffffffffffffffff8111156116b4576116b3610c2d565b5b6116c0868287016115f5565b9150509250925092565b7f4f776e61626c653a206e6577206f776e657220697320746865207a65726f206160008201527f6464726573730000000000000000000000000000000000000000000000000000602082015250565b60006117266026836114a8565b9150611731826116ca565b604082019050919050565b6000602082019050818103600083015261175581611719565b9050919050565b7f4f776e61626c653a2063616c6c6572206973206e6f7420746865206f776e6572600082015250565b60006117926020836114a8565b915061179d8261175c565b602082019050919050565b600060208201905081810360008301526117c181611785565b9050919050565b60006117d382611237565b9050919050565b6117e3816117c8565b82525050565b600081519050919050565b6000819050602082019050919050565b600061180f82611237565b9050919050565b61181f81611804565b82525050565b60006118318383611816565b60208301905092915050565b6000602082019050919050565b6000611855826117e9565b61185f81856112b4565b935061186a836117f4565b8060005b8381101561189b5781516118828882611825565b975061188d8361183d565b92505060018101905061186e565b5085935050505092915050565b600081519050919050565b600082825260208201905092915050565b6000819050602082019050919050565b6118dd81610c5e565b82525050565b60006118ef83836118d4565b60208301905092915050565b6000602082019050919050565b6000611913826118a8565b61191d81856118b3565b9350611928836118c4565b8060005b8381101561195957815161194088826118e3565b975061194b836118fb565b92505060018101905061192c565b5085935050505092915050565b600081519050919050565b600082825260208201905092915050565b60005b838110156119a0578082015181840152602081019050611985565b60008484015250505050565b60006119b782611966565b6119c18185611971565b93506119d1818560208601611982565b6119da81610e40565b840191505092915050565b60006080820190506119fa60008301876117da565b8181036020830152611a0c818661184a565b90508181036040830152611a208185611908565b90508181036060830152611a3481846119ac565b905095945050505050565b7f4e487b7100000000000000000000000000000000000000000000000000000000600052601160045260246000fd5b6000611a7982610c5e565b9150611a8483610c5e565b9250828201905080821115611a9c57611a9b611a3f565b5b92915050565b6000819050919050565b6000611ac7611ac2611abd84611aa2565b61120b565b610c5e565b9050919050565b611ad781611aac565b82525050565b600081519050919050565b6000819050602082019050919050565b6000602082019050919050565b6000611b1082611add565b611b1a81856112b4565b9350611b2583611ae8565b8060005b83811015611b56578151611b3d88826112de565b9750611b4883611af8565b925050600181019050611b29565b5085935050505092915050565b600060a082019050611b78600083018861140b565b611b856020830187611ace565b8181036040830152611b978186611b05565b9050611ba66060830185610bf4565b611bb3608083018461140b565b9695505050505050565b6000611bd0611bcb84610f8f565b610eb1565b90508083825260208201905060208402830185811115611bf357611bf2610c9e565b5b835b81811015611c1c5780611c0888826113c9565b845260208401935050602081019050611bf5565b5050509392505050565b600082601f830112611c3b57611c3a610c94565b5b8151611c4b848260208601611bbd565b91505092915050565b600060208284031215611c6a57611c69610c28565b5b600082015167ffffffffffffffff811115611c8857611c87610c2d565b5b611c9484828501611c26565b9150509291505056fea2646970667358221220ff001dcfc81a869a692376eb4e5fbf942fdf8e6c2f97d354d041d0f3db58129164736f6c63430008130033",
  "linkReferences": {},
  "deployedLinkReferences": {}
}