{"contracts/ArbitrageBot.sol":{"ArbitrageBot":{"abi":[{"inputs":[{"internalType":"address","name":"_vault","type":"address"},{"internalType":"address","name":"_profitRecipitent","type":"address"}],"stateMutability":"nonpayable","type":"constructor"},{"anonymous":false,"inputs":[{"indexed":true,"internalType":"address","name":"previousOwner","type":"address"},{"indexed":true,"internalType":"address","name":"newOwner","type":"address"}],"name":"OwnershipTransferred","type":"event"},{"inputs":[],"name":"owner","outputs":[{"internalType":"address","name":"","type":"address"}],"stateMutability":"view","type":"function"},{"inputs":[],"name":"profitRecipitent","outputs":[{"internalType":"address","name":"","type":"address"}],"stateMutability":"view","type":"function"},{"inputs":[{"internalType":"contract IERC20[]","name":"tokens","type":"address[]"},{"internalType":"uint256[]","name":"amounts","type":"uint256[]"},{"internalType":"uint256[]","name":"feeAmounts","type":"uint256[]"},{"internalType":"bytes","name":"userData","type":"bytes"}],"name":"receiveFlashLoan","outputs":[],"stateMutability":"nonpayable","type":"function"},{"inputs":[],"name":"renounceOwnership","outputs":[],"stateMutability":"nonpayable","type":"function"},{"inputs":[{"internalType":"address","name":"tokenBorrow","type":"address"},{"internalType":"uint256","name":"amountBorrow","type":"uint256"},{"internalType":"address[]","name":"path1","type":"address[]"},{"internalType":"address[]","name":"path2","type":"address[]"},{"internalType":"address[]","name":"dexPath","type":"address[]"}],"name":"startArbitrage","outputs":[],"stateMutability":"nonpayable","type":"function"},{"inputs":[{"internalType":"address","name":"newOwner","type":"address"}],"name":"transferOwnership","outputs":[],"stateMutability":"nonpayable","type":"function"},{"inputs":[],"name":"vault","outputs":[{"internalType":"contract IVault","name":"","type":"address"}],"stateMutability":"view","type":"function"},{"inputs":[{"internalType":"contract IERC20","name":"token","type":"address"}],"name":"withdrawProfit","outputs":[],"stateMutability":"nonpayable","type":"function"}],"evm":{"bytecode":{"linkReferences":{},"object":"60806040523480156200001157600080fd5b5060405162001f4138038062001f41833981810160405281019062000037919062000217565b620000576200004b620000e160201b60201c565b620000e960201b60201c565b81600260006101000a81548173ffffffffffffffffffffffffffffffffffffffff021916908373ffffffffffffffffffffffffffffffffffffffff16021790555080600160006101000a81548173ffffffffffffffffffffffffffffffffffffffff021916908373ffffffffffffffffffffffffffffffffffffffff16021790555050506200025e565b600033905090565b60008060009054906101000a900473ffffffffffffffffffffffffffffffffffffffff169050816000806101000a81548173ffffffffffffffffffffffffffffffffffffffff021916908373ffffffffffffffffffffffffffffffffffffffff1602179055508173ffffffffffffffffffffffffffffffffffffffff168173ffffffffffffffffffffffffffffffffffffffff167f8be0079c531659141344cd1fd0a4f28419497f9722a3daafe3b4186f6b6457e060405160405180910390a35050565b600080fd5b600073ffffffffffffffffffffffffffffffffffffffff82169050919050565b6000620001df82620001b2565b9050919050565b620001f181620001d2565b8114620001fd57600080fd5b50565b6000815190506200021181620001e6565b92915050565b60008060408385031215620002315762000230620001ad565b5b6000620002418582860162000200565b9250506020620002548582860162000200565b9150509250929050565b611cd3806200026e6000396000f3fe608060405234801561001057600080fd5b50600436106100875760003560e01c80638da5cb5b1161005b5780638da5cb5b146100ec578063f04f27071461010a578063f2fde38b14610126578063fbfa77cf1461014257610087565b8062affb731461008c57806317c7c23a146100aa57806324e26241146100c6578063715018a6146100e2575b600080fd5b610094610160565b6040516100a19190610c03565b60405180910390f35b6100c460048036038101906100bf9190610cf9565b610186565b005b6100e060048036038101906100db9190610e13565b6102da565b005b6100ea6103ff565b005b6100f4610413565b6040516101019190610c03565b60405180910390f35b610124600480360381019061011f9190611107565b61043c565b005b610140600480360381019061013b91906111de565b6105f8565b005b61014a61067b565b604051610157919061126a565b60405180910390f35b600160009054906101000a900473ffffffffffffffffffffffffffffffffffffffff1681565b61018e6106a1565b6000600167ffffffffffffffff8111156101ab576101aa610e51565b5b6040519080825280602002602001820160405280156101d95781602001602082028036833780820191505090505b5090506000600167ffffffffffffffff8111156101f9576101f8610e51565b5b6040519080825280602002602001820160405280156102275781602001602082028036833780820191505090505b509050898260008151811061023f5761023e611285565b5b602002602001019073ffffffffffffffffffffffffffffffffffffffff16908173ffffffffffffffffffffffffffffffffffffffff1681525050888160008151811061028e5761028d611285565b5b6020026020010181815250506102ce82828a8a8a8a8a8a6040516020016102ba96959493929190611377565b60405160208183030381529060405261071f565b50505050505050505050565b6102e26106a1565b8073ffffffffffffffffffffffffffffffffffffffff1663a9059cbb600160009054906101000a900473ffffffffffffffffffffffffffffffffffffffff168373ffffffffffffffffffffffffffffffffffffffff166370a08231306040518263ffffffff1660e01b815260040161035a9190610c03565b602060405180830381865afa158015610377573d6000803e3d6000fd5b505050506040513d601f19601f8201168201806040525081019061039b91906113de565b6040518363ffffffff1660e01b81526004016103b892919061141a565b6020604051808303816000875af11580156103d7573d6000803e3d6000fd5b505050506040513d601f19601f820116820180604052508101906103fb919061147b565b5050565b6104076106a1565b61041160006107b7565b565b60008060009054906101000a900473ffffffffffffffffffffffffffffffffffffffff16905090565b600260009054906101000a900473ffffffffffffffffffffffffffffffffffffffff1673ffffffffffffffffffffffffffffffffffffffff163373ffffffffffffffffffffffffffffffffffffffff16146104cc576040517f08c379a00000000000000000000000000000000000000000000000000000000081526004016104c39061152b565b60405180910390fd5b6000806000838060200190518101906104e59190611623565b92509250925060008660008151811061050157610500611285565b5b602002602001015190506105178484848461087b565b8760008151811061052b5761052a611285565b5b602002602001015173ffffffffffffffffffffffffffffffffffffffff1663a9059cbb600260009054906101000a900473ffffffffffffffffffffffffffffffffffffffff168960008151811061058557610584611285565b5b60200260200101516040518363ffffffff1660e01b81526004016105aa92919061141a565b6020604051808303816000875af11580156105c9573d6000803e3d6000fd5b505050506040513d601f19601f820116820180604052508101906105ed919061147b565b505050505050505050565b6106006106a1565b600073ffffffffffffffffffffffffffffffffffffffff168173ffffffffffffffffffffffffffffffffffffffff160361066f576040517f08c379a00000000000000000000000000000000000000000000000000000000081526004016106669061173c565b60405180910390fd5b610678816107b7565b50565b600260009054906101000a900473ffffffffffffffffffffffffffffffffffffffff1681565b6106a9610bba565b73ffffffffffffffffffffffffffffffffffffffff166106c7610413565b73ffffffffffffffffffffffffffffffffffffffff161461071d576040517f08c379a0000000000000000000000000000000000000000000000000000000008152600401610714906117a8565b60405180910390fd5b565b600260009054906101000a900473ffffffffffffffffffffffffffffffffffffffff1673ffffffffffffffffffffffffffffffffffffffff16635c38449e308585856040518563ffffffff1660e01b815260040161078094939291906119e5565b600060405180830381600087803b15801561079a57600080fd5b505af11580156107ae573d6000803e3d6000fd5b50505050505050565b60008060009054906101000a900473ffffffffffffffffffffffffffffffffffffffff169050816000806101000a81548173ffffffffffffffffffffffffffffffffffffffff021916908373ffffffffffffffffffffffffffffffffffffffff1602179055508173ffffffffffffffffffffffffffffffffffffffff168173ffffffffffffffffffffffffffffffffffffffff167f8be0079c531659141344cd1fd0a4f28419497f9722a3daafe3b4186f6b6457e060405160405180910390a35050565b60006104b04261088b9190611a6e565b90506000836000815181106108a3576108a2611285565b5b602002602001015190506000846001815181106108c3576108c2611285565b5b60200260200101519050866000815181106108e1576108e0611285565b5b602002602001015173ffffffffffffffffffffffffffffffffffffffff1663095ea7b383866040518363ffffffff1660e01b815260040161092392919061141a565b6020604051808303816000875af1158015610942573d6000803e3d6000fd5b505050506040513d601f19601f82011682018060405250810190610966919061147b565b508173ffffffffffffffffffffffffffffffffffffffff166338ed17398560018a30886040518663ffffffff1660e01b81526004016109a9959493929190611b63565b6000604051808303816000875af11580156109c8573d6000803e3d6000fd5b505050506040513d6000823e3d601f19601f820116820180604052508101906109f19190611c54565b50600087600181518110610a0857610a07611285565b5b602002602001015173ffffffffffffffffffffffffffffffffffffffff166370a08231306040518263ffffffff1660e01b8152600401610a489190610c03565b602060405180830381865afa158015610a65573d6000803e3d6000fd5b505050506040513d601f19601f82011682018060405250810190610a8991906113de565b905086600081518110610a9f57610a9e611285565b5b602002602001015173ffffffffffffffffffffffffffffffffffffffff1663095ea7b383836040518363ffffffff1660e01b8152600401610ae192919061141a565b6020604051808303816000875af1158015610b00573d6000803e3d6000fd5b505050506040513d601f19601f82011682018060405250810190610b24919061147b565b508173ffffffffffffffffffffffffffffffffffffffff166338ed17398260018a30896040518663ffffffff1660e01b8152600401610b67959493929190611b63565b6000604051808303816000875af1158015610b86573d6000803e3d6000fd5b505050506040513d6000823e3d601f19601f82011682018060405250810190610baf9190611c54565b505050505050505050565b600033905090565b600073ffffffffffffffffffffffffffffffffffffffff82169050919050565b6000610bed82610bc2565b9050919050565b610bfd81610be2565b82525050565b6000602082019050610c186000830184610bf4565b92915050565b6000604051905090565b600080fd5b600080fd5b610c3b81610be2565b8114610c4657600080fd5b50565b600081359050610c5881610c32565b92915050565b6000819050919050565b610c7181610c5e565b8114610c7c57600080fd5b50565b600081359050610c8e81610c68565b92915050565b600080fd5b600080fd5b600080fd5b60008083601f840112610cb957610cb8610c94565b5b8235905067ffffffffffffffff811115610cd657610cd5610c99565b5b602083019150836020820283011115610cf257610cf1610c9e565b5b9250929050565b60008060008060008060008060a0898b031215610d1957610d18610c28565b5b6000610d278b828c01610c49565b9850506020610d388b828c01610c7f565b975050604089013567ffffffffffffffff811115610d5957610d58610c2d565b5b610d658b828c01610ca3565b9650965050606089013567ffffffffffffffff811115610d8857610d87610c2d565b5b610d948b828c01610ca3565b9450945050608089013567ffffffffffffffff811115610db757610db6610c2d565b5b610dc38b828c01610ca3565b92509250509295985092959890939650565b6000610de082610be2565b9050919050565b610df081610dd5565b8114610dfb57600080fd5b50565b600081359050610e0d81610de7565b92915050565b600060208284031215610e2957610e28610c28565b5b6000610e3784828501610dfe565b91505092915050565b6000601f19601f8301169050919050565b7f4e487b7100000000000000000000000000000000000000000000000000000000600052604160045260246000fd5b610e8982610e40565b810181811067ffffffffffffffff82111715610ea857610ea7610e51565b5b80604052505050565b6000610ebb610c1e565b9050610ec78282610e80565b919050565b600067ffffffffffffffff821115610ee757610ee6610e51565b5b602082029050602081019050919050565b6000610f0b610f0684610ecc565b610eb1565b90508083825260208201905060208402830185811115610f2e57610f2d610c9e565b5b835b81811015610f575780610f438882610dfe565b845260208401935050602081019050610f30565b5050509392505050565b600082601f830112610f7657610f75610c94565b5b8135610f86848260208601610ef8565b91505092915050565b600067ffffffffffffffff821115610faa57610fa9610e51565b5b602082029050602081019050919050565b6000610fce610fc984610f8f565b610eb1565b90508083825260208201905060208402830185811115610ff157610ff0610c9e565b5b835b8181101561101a57806110068882610c7f565b845260208401935050602081019050610ff3565b5050509392505050565b600082601f83011261103957611038610c94565b5b8135611049848260208601610fbb565b91505092915050565b600080fd5b600067ffffffffffffffff82111561107257611071610e51565b5b61107b82610e40565b9050602081019050919050565b82818337600083830152505050565b60006110aa6110a584611057565b610eb1565b9050828152602081018484840111156110c6576110c5611052565b5b6110d1848285611088565b509392505050565b600082601f8301126110ee576110ed610c94565b5b81356110fe848260208601611097565b91505092915050565b6000806000806080858703121561112157611120610c28565b5b600085013567ffffffffffffffff81111561113f5761113e610c2d565b5b61114b87828801610f61565b945050602085013567ffffffffffffffff81111561116c5761116b610c2d565b5b61117887828801611024565b935050604085013567ffffffffffffffff81111561119957611198610c2d565b5b6111a587828801611024565b925050606085013567ffffffffffffffff8111156111c6576111c5610c2d565b5b6111d2878288016110d9565b91505092959194509250565b6000602082840312156111f4576111f3610c28565b5b600061120284828501610c49565b91505092915050565b6000819050919050565b600061123061122b61122684610bc2565b61120b565b610bc2565b9050919050565b600061124282611215565b9050919050565b600061125482611237565b9050919050565b61126481611249565b82525050565b600060208201905061127f600083018461125b565b92915050565b7f4e487b7100000000000000000000000000000000000000000000000000000000600052603260045260246000fd5b600082825260208201905092915050565b6000819050919050565b6112d881610be2565b82525050565b60006112ea83836112cf565b60208301905092915050565b60006113056020840184610c49565b905092915050565b6000602082019050919050565b600061132683856112b4565b9350611331826112c5565b8060005b8581101561136a5761134782846112f6565b61135188826112de565b975061135c8361130d565b925050600181019050611335565b5085925050509392505050565b6000606082019050818103600083015261139281888a61131a565b905081810360208301526113a781868861131a565b905081810360408301526113bc81848661131a565b9050979650505050505050565b6000815190506113d881610c68565b92915050565b6000602082840312156113f4576113f3610c28565b5b6000611402848285016113c9565b91505092915050565b61141481610c5e565b82525050565b600060408201905061142f6000830185610bf4565b61143c602083018461140b565b9392505050565b60008115159050919050565b61145881611443565b811461146357600080fd5b50565b6000815190506114758161144f565b92915050565b60006020828403121561149157611490610c28565b5b600061149f84828501611466565b91505092915050565b600082825260208201905092915050565b7f4d6573736167652073656e646572206d7573742062652042616c616e6365722060008201527f5661756c74210000000000000000000000000000000000000000000000000000602082015250565b60006115156026836114a8565b9150611520826114b9565b604082019050919050565b6000602082019050818103600083015261154481611508565b9050919050565b600067ffffffffffffffff82111561156657611565610e51565b5b602082029050602081019050919050565b60008151905061158681610c32565b92915050565b600061159f61159a8461154b565b610eb1565b905080838252602082019050602084028301858111156115c2576115c1610c9e565b5b835b818110156115eb57806115d78882611577565b8452602084019350506020810190506115c4565b5050509392505050565b600082601f83011261160a57611609610c94565b5b815161161a84826020860161158c565b91505092915050565b60008060006060848603121561163c5761163b610c28565b5b600084015167ffffffffffffffff81111561165a57611659610c2d565b5b611666868287016115f5565b935050602084015167ffffffffffffffff81111561168757611686610c2d565b5b611693868287016115f5565b925050604084015167ffffffffffffffff8111156116b4576116b3610c2d565b5b6116c0868287016115f5565b9150509250925092565b7f4f776e61626c653a206e6577206f776e657220697320746865207a65726f206160008201527f6464726573730000000000000000000000000000000000000000000000000000602082015250565b60006117266026836114a8565b9150611731826116ca565b604082019050919050565b6000602082019050818103600083015261175581611719565b9050919050565b7f4f776e61626c653a2063616c6c6572206973206e6f7420746865206f776e6572600082015250565b60006117926020836114a8565b915061179d8261175c565b602082019050919050565b600060208201905081810360008301526117c181611785565b9050919050565b60006117d382611237565b9050919050565b6117e3816117c8565b82525050565b600081519050919050565b6000819050602082019050919050565b600061180f82611237565b9050919050565b61181f81611804565b82525050565b60006118318383611816565b60208301905092915050565b6000602082019050919050565b6000611855826117e9565b61185f81856112b4565b935061186a836117f4565b8060005b8381101561189b5781516118828882611825565b975061188d8361183d565b92505060018101905061186e565b5085935050505092915050565b600081519050919050565b600082825260208201905092915050565b6000819050602082019050919050565b6118dd81610c5e565b82525050565b60006118ef83836118d4565b60208301905092915050565b6000602082019050919050565b6000611913826118a8565b61191d81856118b3565b9350611928836118c4565b8060005b8381101561195957815161194088826118e3565b975061194b836118fb565b92505060018101905061192c565b5085935050505092915050565b600081519050919050565b600082825260208201905092915050565b60005b838110156119a0578082015181840152602081019050611985565b60008484015250505050565b60006119b782611966565b6119c18185611971565b93506119d1818560208601611982565b6119da81610e40565b840191505092915050565b60006080820190506119fa60008301876117da565b8181036020830152611a0c818661184a565b90508181036040830152611a208185611908565b90508181036060830152611a3481846119ac565b905095945050505050565b7f4e487b7100000000000000000000000000000000000000000000000000000000600052601160045260246000fd5b6000611a7982610c5e565b9150611a8483610c5e565b9250828201905080821115611a9c57611a9b611a3f565b5b92915050565b6000819050919050565b6000611ac7611ac2611abd84611aa2565b61120b565b610c5e565b9050919050565b611ad781611aac565b82525050565b600081519050919050565b6000819050602082019050919050565b6000602082019050919050565b6000611b1082611add565b611b1a81856112b4565b9350611b2583611ae8565b8060005b83811015611b56578151611b3d88826112de565b9750611b4883611af8565b925050600181019050611b29565b5085935050505092915050565b600060a082019050611b78600083018861140b565b611b856020830187611ace565b8181036040830152611b978186611b05565b9050611ba66060830185610bf4565b611bb3608083018461140b565b9695505050505050565b6000611bd0611bcb84610f8f565b610eb1565b90508083825260208201905060208402830185811115611bf357611bf2610c9e565b5b835b81811015611c1c5780611c0888826113c9565b845260208401935050602081019050611bf5565b5050509392505050565b600082601f830112611c3b57611c3a610c94565b5b8151611c4b848260208601611bbd565b91505092915050565b600060208284031215611c6a57611c69610c28565b5b600082015167ffffffffffffffff811115611c8857611c87610c2d565b5b611c9484828501611c26565b9150509291505056fea2646970667358221220ff001dcfc81a869a692376eb4e5fbf942fdf8e6c2f97d354d041d0f3db58129164736f6c63430008130033","opcodes":"PUSH1 0x80 PUSH1 0x40 MSTORE CALLVALUE DUP1 ISZERO PUSH3 0x11 JUMPI PUSH1 0x0 DUP1 REVERT JUMPDEST POP PUSH1 0x40 MLOAD PUSH3 0x1F41 CODESIZE SUB DUP1 PUSH3 0x1F41 DUP4 CODECOPY DUP2 DUP2 ADD PUSH1 0x40 MSTORE DUP2 ADD SWAP1 PUSH3 0x37 SWAP2 SWAP1 PUSH3 0x217 JUMP JUMPDEST PUSH3 0x57 PUSH3 0x4B PUSH3 0xE1 PUSH1 0x20 SHL PUSH1 0x20 SHR JUMP JUMPDEST PUSH3 0xE9 PUSH1 0x20 SHL PUSH1 0x20 SHR JUMP JUMPDEST DUP2 PUSH1 0x2 PUSH1 0x0 PUSH2 0x100 EXP DUP2 SLOAD DUP2 PUSH20 0xFFFFFFFFFFFFFFFFFFFFFFFFFFFFFFFFFFFFFFFF MUL NOT AND SWAP1 DUP4 PUSH20 0xFFFFFFFFFFFFFFFFFFFFFFFFFFFFFFFFFFFFFFFF AND MUL OR SWAP1 SSTORE POP DUP1 PUSH1 0x1 PUSH1 0x0 PUSH2 0x100 EXP DUP2 SLOAD DUP2 PUSH20 0xFFFFFFFFFFFFFFFFFFFFFFFFFFFFFFFFFFFFFFFF MUL NOT AND SWAP1 DUP4 PUSH20 0xFFFFFFFFFFFFFFFFFFFFFFFFFFFFFFFFFFFFFFFF AND MUL OR SWAP1 SSTORE POP POP POP PUSH3 0x25E JUMP JUMPDEST PUSH1 0x0 CALLER SWAP1 POP SWAP1 JUMP JUMPDEST PUSH1 0x0 DUP1 PUSH1 0x0 SWAP1 SLOAD SWAP1 PUSH2 0x100 EXP SWAP1 DIV PUSH20 0xFFFFFFFFFFFFFFFFFFFFFFFFFFFFFFFFFFFFFFFF AND SWAP1 POP DUP2 PUSH1 0x0 DUP1 PUSH2 0x100 EXP DUP2 SLOAD DUP2 PUSH20 0xFFFFFFFFFFFFFFFFFFFFFFFFFFFFFFFFFFFFFFFF MUL NOT AND SWAP1 DUP4 PUSH20 0xFFFFFFFFFFFFFFFFFFFFFFFFFFFFFFFFFFFFFFFF AND MUL OR SWAP1 SSTORE POP DUP2 PUSH20 0xFFFFFFFFFFFFFFFFFFFFFFFFFFFFFFFFFFFFFFFF AND DUP2 PUSH20 0xFFFFFFFFFFFFFFFFFFFFFFFFFFFFFFFFFFFFFFFF AND PUSH32 0x8BE0079C531659141344CD1FD0A4F28419497F9722A3DAAFE3B4186F6B6457E0 PUSH1 0x40 MLOAD PUSH1 0x40 MLOAD DUP1 SWAP2 SUB SWAP1 LOG3 POP POP JUMP JUMPDEST PUSH1 0x0 DUP1 REVERT JUMPDEST PUSH1 0x0 PUSH20 0xFFFFFFFFFFFFFFFFFFFFFFFFFFFFFFFFFFFFFFFF DUP3 AND SWAP1 POP SWAP2 SWAP1 POP JUMP JUMPDEST PUSH1 0x0 PUSH3 0x1DF DUP3 PUSH3 0x1B2 JUMP JUMPDEST SWAP1 POP SWAP2 SWAP1 POP JUMP JUMPDEST PUSH3 0x1F1 DUP2 PUSH3 0x1D2 JUMP JUMPDEST DUP2 EQ PUSH3 0x1FD JUMPI PUSH1 0x0 DUP1 REVERT JUMPDEST POP JUMP JUMPDEST PUSH1 0x0 DUP2 MLOAD SWAP1 POP PUSH3 0x211 DUP2 PUSH3 0x1E6 JUMP JUMPDEST SWAP3 SWAP2 POP POP JUMP JUMPDEST PUSH1 0x0 DUP1 PUSH1 0x40 DUP4 DUP6 SUB SLT ISZERO PUSH3 0x231 JUMPI PUSH3 0x230 PUSH3 0x1AD JUMP JUMPDEST JUMPDEST PUSH1 0x0 PUSH3 0x241 DUP6 DUP3 DUP7 ADD PUSH3 0x200 JUMP JUMPDEST SWAP3 POP POP PUSH1 0x20 PUSH3 0x254 DUP6 DUP3 DUP7 ADD PUSH3 0x200 JUMP JUMPDEST SWAP2 POP POP SWAP3 POP SWAP3 SWAP1 POP JUMP JUMPDEST PUSH2 0x1CD3 DUP1 PUSH3 0x26E PUSH1 0x0 CODECOPY PUSH1 0x0 RETURN INVALID PUSH1 0x80 PUSH1 0x40 MSTORE CALLVALUE DUP1 ISZERO PUSH2 0x10 JUMPI PUSH1 0x0 DUP1 REVERT JUMPDEST POP PUSH1 0x4 CALLDATASIZE LT PUSH2 0x87 JUMPI PUSH1 0x0 CALLDATALOAD PUSH1 0xE0 SHR DUP1 PUSH4 0x8DA5CB5B GT PUSH2 0x5B JUMPI DUP1 PUSH4 0x8DA5CB5B EQ PUSH2 0xEC JUMPI DUP1 PUSH4 0xF04F2707 EQ PUSH2 0x10A JUMPI DUP1 PUSH4 0xF2FDE38B EQ PUSH2 0x126 JUMPI DUP1 PUSH4 0xFBFA77CF EQ PUSH2 0x142 JUMPI PUSH2 0x87 JUMP JUMPDEST DUP1 PUSH3 0xAFFB73 EQ PUSH2 0x8C JUMPI DUP1 PUSH4 0x17C7C23A EQ PUSH2 0xAA JUMPI DUP1 PUSH4 0x24E26241 EQ PUSH2 0xC6 JUMPI DUP1 PUSH4 0x715018A6 EQ PUSH2 0xE2 JUMPI JUMPDEST PUSH1 0x0 DUP1 REVERT JUMPDEST PUSH2 0x94 PUSH2 0x160 JUMP JUMPDEST PUSH1 0x40 MLOAD PUSH2 0xA1 SWAP2 SWAP1 PUSH2 0xC03 JUMP JUMPDEST PUSH1 0x40 MLOAD DUP1 SWAP2 SUB SWAP1 RETURN JUMPDEST PUSH2 0xC4 PUSH1 0x4 DUP1 CALLDATASIZE SUB DUP2 ADD SWAP1 PUSH2 0xBF SWAP2 SWAP1 PUSH2 0xCF9 JUMP JUMPDEST PUSH2 0x186 JUMP JUMPDEST STOP JUMPDEST PUSH2 0xE0 PUSH1 0x4 DUP1 CALLDATASIZE SUB DUP2 ADD SWAP1 PUSH2 0xDB SWAP2 SWAP1 PUSH2 0xE13 JUMP JUMPDEST PUSH2 0x2DA JUMP JUMPDEST STOP JUMPDEST PUSH2 0xEA PUSH2 0x3FF JUMP JUMPDEST STOP JUMPDEST PUSH2 0xF4 PUSH2 0x413 JUMP JUMPDEST PUSH1 0x40 MLOAD PUSH2 0x101 SWAP2 SWAP1 PUSH2 0xC03 JUMP JUMPDEST PUSH1 0x40 MLOAD DUP1 SWAP2 SUB SWAP1 RETURN JUMPDEST PUSH2 0x124 PUSH1 0x4 DUP1 CALLDATASIZE SUB DUP2 ADD SWAP1 PUSH2 0x11F SWAP2 SWAP1 PUSH2 0x1107 JUMP JUMPDEST PUSH2 0x43C JUMP JUMPDEST STOP JUMPDEST PUSH2 0x140 PUSH1 0x4 DUP1 CALLDATASIZE SUB DUP2 ADD SWAP1 PUSH2 0x13B SWAP2 SWAP1 PUSH2 0x11DE JUMP JUMPDEST PUSH2 0x5F8 JUMP JUMPDEST STOP JUMPDEST PUSH2 0x14A PUSH2 0x67B JUMP JUMPDEST PUSH1 0x40 MLOAD PUSH2 0x157 SWAP2 SWAP1 PUSH2 0x126A JUMP JUMPDEST PUSH1 0x40 MLOAD DUP1 SWAP2 SUB SWAP1 RETURN JUMPDEST PUSH1 0x1 PUSH1 0x0 SWAP1 SLOAD SWAP1 PUSH2 0x100 EXP SWAP1 DIV PUSH20 0xFFFFFFFFFFFFFFFFFFFFFFFFFFFFFFFFFFFFFFFF AND DUP2 JUMP JUMPDEST PUSH2 0x18E PUSH2 0x6A1 JUMP JUMPDEST PUSH1 0x0 PUSH1 0x1 PUSH8 0xFFFFFFFFFFFFFFFF DUP2 GT ISZERO PUSH2 0x1AB JUMPI PUSH2 0x1AA PUSH2 0xE51 JUMP JUMPDEST JUMPDEST PUSH1 0x40 MLOAD SWAP1 DUP1 DUP3 MSTORE DUP1 PUSH1 0x20 MUL PUSH1 0x20 ADD DUP3 ADD PUSH1 0x40 MSTORE DUP1 ISZERO PUSH2 0x1D9 JUMPI DUP2 PUSH1 0x20 ADD PUSH1 0x20 DUP3 MUL DUP1 CALLDATASIZE DUP4 CALLDATACOPY DUP1 DUP3 ADD SWAP2 POP POP SWAP1 POP JUMPDEST POP SWAP1 POP PUSH1 0x0 PUSH1 0x1 PUSH8 0xFFFFFFFFFFFFFFFF DUP2 GT ISZERO PUSH2 0x1F9 JUMPI PUSH2 0x1F8 PUSH2 0xE51 JUMP JUMPDEST JUMPDEST PUSH1 0x40 MLOAD SWAP1 DUP1 DUP3 MSTORE DUP1 PUSH1 0x20 MUL PUSH1 0x20 ADD DUP3 ADD PUSH1 0x40 MSTORE DUP1 ISZERO PUSH2 0x227 JUMPI DUP2 PUSH1 0x20 ADD PUSH1 0x20 DUP3 MUL DUP1 CALLDATASIZE DUP4 CALLDATACOPY DUP1 DUP3 ADD SWAP2 POP POP SWAP1 POP JUMPDEST POP SWAP1 POP DUP10 DUP3 PUSH1 0x0 DUP2 MLOAD DUP2 LT PUSH2 0x23F JUMPI PUSH2 0x23E PUSH2 0x1285 JUMP JUMPDEST JUMPDEST PUSH1 0x20 MUL PUSH1 0x20 ADD ADD SWAP1 PUSH20 0xFFFFFFFFFFFFFFFFFFFFFFFFFFFFFFFFFFFFFFFF AND SWAP1 DUP2 PUSH20 0xFFFFFFFFFFFFFFFFFFFFFFFFFFFFFFFFFFFFFFFF AND DUP2 MSTORE POP POP DUP9 DUP2 PUSH1 0x0 DUP2 MLOAD DUP2 LT PUSH2 0x28E JUMPI PUSH2 0x28D PUSH2 0x1285 JUMP JUMPDEST JUMPDEST PUSH1 0x20 MUL PUSH1 0x20 ADD ADD DUP2 DUP2 MSTORE POP POP PUSH2 0x2CE DUP3 DUP3 DUP11 DUP11 DUP11 DUP11 DUP11 DUP11 PUSH1 0x40 MLOAD PUSH1 0x20 ADD PUSH2 0x2BA SWAP7 SWAP6 SWAP5 SWAP4 SWAP3 SWAP2 SWAP1 PUSH2 0x1377 JUMP JUMPDEST PUSH1 0x40 MLOAD PUSH1 0x20 DUP2 DUP4 SUB SUB DUP2 MSTORE SWAP1 PUSH1 0x40 MSTORE PUSH2 0x71F JUMP JUMPDEST POP POP POP POP POP POP POP POP POP POP JUMP JUMPDEST PUSH2 0x2E2 PUSH2 0x6A1 JUMP JUMPDEST DUP1 PUSH20 0xFFFFFFFFFFFFFFFFFFFFFFFFFFFFFFFFFFFFFFFF AND PUSH4 0xA9059CBB PUSH1 0x1 PUSH1 0x0 SWAP1 SLOAD SWAP1 PUSH2 0x100 EXP SWAP1 DIV PUSH20 0xFFFFFFFFFFFFFFFFFFFFFFFFFFFFFFFFFFFFFFFF AND DUP4 PUSH20 0xFFFFFFFFFFFFFFFFFFFFFFFFFFFFFFFFFFFFFFFF AND PUSH4 0x70A08231 ADDRESS PUSH1 0x40 MLOAD DUP3 PUSH4 0xFFFFFFFF AND PUSH1 0xE0 SHL DUP2 MSTORE PUSH1 0x4 ADD PUSH2 0x35A SWAP2 SWAP1 PUSH2 0xC03 JUMP JUMPDEST PUSH1 0x20 PUSH1 0x40 MLOAD DUP1 DUP4 SUB DUP2 DUP7 GAS STATICCALL ISZERO DUP1 ISZERO PUSH2 0x377 JUMPI RETURNDATASIZE PUSH1 0x0 DUP1 RETURNDATACOPY RETURNDATASIZE PUSH1 0x0 REVERT JUMPDEST POP POP POP POP PUSH1 0x40 MLOAD RETURNDATASIZE PUSH1 0x1F NOT PUSH1 0x1F DUP3 ADD AND DUP3 ADD DUP1 PUSH1 0x40 MSTORE POP DUP2 ADD SWAP1 PUSH2 0x39B SWAP2 SWAP1 PUSH2 0x13DE JUMP JUMPDEST PUSH1 0x40 MLOAD DUP4 PUSH4 0xFFFFFFFF AND PUSH1 0xE0 SHL DUP2 MSTORE PUSH1 0x4 ADD PUSH2 0x3B8 SWAP3 SWAP2 SWAP1 PUSH2 0x141A JUMP JUMPDEST PUSH1 0x20 PUSH1 0x40 MLOAD DUP1 DUP4 SUB DUP2 PUSH1 0x0 DUP8 GAS CALL ISZERO DUP1 ISZERO PUSH2 0x3D7 JUMPI RETURNDATASIZE PUSH1 0x0 DUP1 RETURNDATACOPY RETURNDATASIZE PUSH1 0x0 REVERT JUMPDEST POP POP POP POP PUSH1 0x40 MLOAD RETURNDATASIZE PUSH1 0x1F NOT PUSH1 0x1F DUP3 ADD AND DUP3 ADD DUP1 PUSH1 0x40 MSTORE POP DUP2 ADD SWAP1 PUSH2 0x3FB SWAP2 SWAP1 PUSH2 0x147B JUMP JUMPDEST POP POP JUMP JUMPDEST PUSH2 0x407 PUSH2 0x6A1 JUMP JUMPDEST PUSH2 0x411 PUSH1 0x0 PUSH2 0x7B7 JUMP JUMPDEST JUMP JUMPDEST PUSH1 0x0 DUP1 PUSH1 0x0 SWAP1 SLOAD SWAP1 PUSH2 0x100 EXP SWAP1 DIV PUSH20 0xFFFFFFFFFFFFFFFFFFFFFFFFFFFFFFFFFFFFFFFF AND SWAP1 POP SWAP1 JUMP JUMPDEST PUSH1 0x2 PUSH1 0x0 SWAP1 SLOAD SWAP1 PUSH2 0x100 EXP SWAP1 DIV PUSH20 0xFFFFFFFFFFFFFFFFFFFFFFFFFFFFFFFFFFFFFFFF AND PUSH20 0xFFFFFFFFFFFFFFFFFFFFFFFFFFFFFFFFFFFFFFFF AND CALLER PUSH20 0xFFFFFFFFFFFFFFFFFFFFFFFFFFFFFFFFFFFFFFFF AND EQ PUSH2 0x4CC JUMPI PUSH1 0x40 MLOAD PUSH32 0x8C379A000000000000000000000000000000000000000000000000000000000 DUP2 MSTORE PUSH1 0x4 ADD PUSH2 0x4C3 SWAP1 PUSH2 0x152B JUMP JUMPDEST PUSH1 0x40 MLOAD DUP1 SWAP2 SUB SWAP1 REVERT JUMPDEST PUSH1 0x0 DUP1 PUSH1 0x0 DUP4 DUP1 PUSH1 0x20 ADD SWAP1 MLOAD DUP2 ADD SWAP1 PUSH2 0x4E5 SWAP2 SWAP1 PUSH2 0x1623 JUMP JUMPDEST SWAP3 POP SWAP3 POP SWAP3 POP PUSH1 0x0 DUP7 PUSH1 0x0 DUP2 MLOAD DUP2 LT PUSH2 0x501 JUMPI PUSH2 0x500 PUSH2 0x1285 JUMP JUMPDEST JUMPDEST PUSH1 0x20 MUL PUSH1 0x20 ADD ADD MLOAD SWAP1 POP PUSH2 0x517 DUP5 DUP5 DUP5 DUP5 PUSH2 0x87B JUMP JUMPDEST DUP8 PUSH1 0x0 DUP2 MLOAD DUP2 LT PUSH2 0x52B JUMPI PUSH2 0x52A PUSH2 0x1285 JUMP JUMPDEST JUMPDEST PUSH1 0x20 MUL PUSH1 0x20 ADD ADD MLOAD PUSH20 0xFFFFFFFFFFFFFFFFFFFFFFFFFFFFFFFFFFFFFFFF AND PUSH4 0xA9059CBB PUSH1 0x2 PUSH1 0x0 SWAP1 SLOAD SWAP1 PUSH2 0x100 EXP SWAP1 DIV PUSH20 0xFFFFFFFFFFFFFFFFFFFFFFFFFFFFFFFFFFFFFFFF AND DUP10 PUSH1 0x0 DUP2 MLOAD DUP2 LT PUSH2 0x585 JUMPI PUSH2 0x584 PUSH2 0x1285 JUMP JUMPDEST JUMPDEST PUSH1 0x20 MUL PUSH1 0x20 ADD ADD MLOAD PUSH1 0x40 MLOAD DUP4 PUSH4 0xFFFFFFFF AND PUSH1 0xE0 SHL DUP2 MSTORE PUSH1 0x4 ADD PUSH2 0x5AA SWAP3 SWAP2 SWAP1 PUSH2 0x141A JUMP JUMPDEST PUSH1 0x20 PUSH1 0x40 MLOAD DUP1 DUP4 SUB DUP2 PUSH1 0x0 DUP8 GAS CALL ISZERO DUP1 ISZERO PUSH2 0x5C9 JUMPI RETURNDATASIZE PUSH1 0x0 DUP1 RETURNDATACOPY RETURNDATASIZE PUSH1 0x0 REVERT JUMPDEST POP POP POP POP PUSH1 0x40 MLOAD RETURNDATASIZE PUSH1 0x1F NOT PUSH1 0x1F DUP3 ADD AND DUP3 ADD DUP1 PUSH1 0x40 MSTORE POP DUP2 ADD SWAP1 PUSH2 0x5ED SWAP2 SWAP1 PUSH2 0x147B JUMP JUMPDEST POP POP POP POP POP POP POP POP POP JUMP JUMPDEST PUSH2 0x600 PUSH2 0x6A1 JUMP JUMPDEST PUSH1 0x0 PUSH20 0xFFFFFFFFFFFFFFFFFFFFFFFFFFFFFFFFFFFFFFFF AND DUP2 PUSH20 0xFFFFFFFFFFFFFFFFFFFFFFFFFFFFFFFFFFFFFFFF AND SUB PUSH2 0x66F JUMPI PUSH1 0x40 MLOAD PUSH32 0x8C379A000000000000000000000000000000000000000000000000000000000 DUP2 MSTORE PUSH1 0x4 ADD PUSH2 0x666 SWAP1 PUSH2 0x173C JUMP JUMPDEST PUSH1 0x40 MLOAD DUP1 SWAP2 SUB SWAP1 REVERT JUMPDEST PUSH2 0x678 DUP2 PUSH2 0x7B7 JUMP JUMPDEST POP JUMP JUMPDEST PUSH1 0x2 PUSH1 0x0 SWAP1 SLOAD SWAP1 PUSH2 0x100 EXP SWAP1 DIV PUSH20 0xFFFFFFFFFFFFFFFFFFFFFFFFFFFFFFFFFFFFFFFF AND DUP2 JUMP JUMPDEST PUSH2 0x6A9 PUSH2 0xBBA JUMP JUMPDEST PUSH20 0xFFFFFFFFFFFFFFFFFFFFFFFFFFFFFFFFFFFFFFFF AND PUSH2 0x6C7 PUSH2 0x413 JUMP JUMPDEST PUSH20 0xFFFFFFFFFFFFFFFFFFFFFFFFFFFFFFFFFFFFFFFF AND EQ PUSH2 0x71D JUMPI PUSH1 0x40 MLOAD PUSH32 0x8C379A000000000000000000000000000000000000000000000000000000000 DUP2 MSTORE PUSH1 0x4 ADD PUSH2 0x714 SWAP1 PUSH2 0x17A8 JUMP JUMPDEST PUSH1 0x40 MLOAD DUP1 SWAP2 SUB SWAP1 REVERT JUMPDEST JUMP JUMPDEST PUSH1 0x2 PUSH1 0x0 SWAP1 SLOAD SWAP1 PUSH2 0x100 EXP SWAP1 DIV PUSH20 0xFFFFFFFFFFFFFFFFFFFFFFFFFFFFFFFFFFFFFFFF AND PUSH20 0xFFFFFFFFFFFFFFFFFFFFFFFFFFFFFFFFFFFFFFFF AND PUSH4 0x5C38449E ADDRESS DUP6 DUP6 DUP6 PUSH1 0x40 MLOAD DUP6 PUSH4 0xFFFFFFFF AND PUSH1 0xE0 SHL DUP2 MSTORE PUSH1 0x4 ADD PUSH2 0x780 SWAP5 SWAP4 SWAP3 SWAP2 SWAP1 PUSH2 0x19E5 JUMP JUMPDEST PUSH1 0x0 PUSH1 0x40 MLOAD DUP1 DUP4 SUB DUP2 PUSH1 0x0 DUP8 DUP1 EXTCODESIZE ISZERO DUP1 ISZERO PUSH2 0x79A JUMPI PUSH1 0x0 DUP1 REVERT JUMPDEST POP GAS CALL ISZERO DUP1 ISZERO PUSH2 0x7AE JUMPI RETURNDATASIZE PUSH1 0x0 DUP1 RETURNDATACOPY RETURNDATASIZE PUSH1 0x0 REVERT JUMPDEST POP POP POP POP POP POP POP JUMP JUMPDEST PUSH1 0x0 DUP1 PUSH1 0x0 SWAP1 SLOAD SWAP1 PUSH2 0x100 EXP SWAP1 DIV PUSH20 0xFFFFFFFFFFFFFFFFFFFFFFFFFFFFFFFFFFFFFFFF AND SWAP1 POP DUP2 PUSH1 0x0 DUP1 PUSH2 0x100 EXP DUP2 SLOAD DUP2 PUSH20 0xFFFFFFFFFFFFFFFFFFFFFFFFFFFFFFFFFFFFFFFF MUL NOT AND SWAP1 DUP4 PUSH20 0xFFFFFFFFFFFFFFFFFFFFFFFFFFFFFFFFFFFFFFFF AND MUL OR SWAP1 SSTORE POP DUP2 PUSH20 0xFFFFFFFFFFFFFFFFFFFFFFFFFFFFFFFFFFFFFFFF AND DUP2 PUSH20 0xFFFFFFFFFFFFFFFFFFFFFFFFFFFFFFFFFFFFFFFF AND PUSH32 0x8BE0079C531659141344CD1FD0A4F28419497F9722A3DAAFE3B4186F6B6457E0 PUSH1 0x40 MLOAD PUSH1 0x40 MLOAD DUP1 SWAP2 SUB SWAP1 LOG3 POP POP JUMP JUMPDEST PUSH1 0x0 PUSH2 0x4B0 TIMESTAMP PUSH2 0x88B SWAP2 SWAP1 PUSH2 0x1A6E JUMP JUMPDEST SWAP1 POP PUSH1 0x0 DUP4 PUSH1 0x0 DUP2 MLOAD DUP2 LT PUSH2 0x8A3 JUMPI PUSH2 0x8A2 PUSH2 0x1285 JUMP JUMPDEST JUMPDEST PUSH1 0x20 MUL PUSH1 0x20 ADD ADD MLOAD SWAP1 POP PUSH1 0x0 DUP5 PUSH1 0x1 DUP2 MLOAD DUP2 LT PUSH2 0x8C3 JUMPI PUSH2 0x8C2 PUSH2 0x1285 JUMP JUMPDEST JUMPDEST PUSH1 0x20 MUL PUSH1 0x20 ADD ADD MLOAD SWAP1 POP DUP7 PUSH1 0x0 DUP2 MLOAD DUP2 LT PUSH2 0x8E1 JUMPI PUSH2 0x8E0 PUSH2 0x1285 JUMP JUMPDEST JUMPDEST PUSH1 0x20 MUL PUSH1 0x20 ADD ADD MLOAD PUSH20 0xFFFFFFFFFFFFFFFFFFFFFFFFFFFFFFFFFFFFFFFF AND PUSH4 0x95EA7B3 DUP4 DUP7 PUSH1 0x40 MLOAD DUP4 PUSH4 0xFFFFFFFF AND PUSH1 0xE0 SHL DUP2 MSTORE PUSH1 0x4 ADD PUSH2 0x923 SWAP3 SWAP2 SWAP1 PUSH2 0x141A JUMP JUMPDEST PUSH1 0x20 PUSH1 0x40 MLOAD DUP1 DUP4 SUB DUP2 PUSH1 0x0 DUP8 GAS CALL ISZERO DUP1 ISZERO PUSH2 0x942 JUMPI RETURNDATASIZE PUSH1 0x0 DUP1 RETURNDATACOPY RETURNDATASIZE PUSH1 0x0 REVERT JUMPDEST POP POP POP POP PUSH1 0x40 MLOAD RETURNDATASIZE PUSH1 0x1F NOT PUSH1 0x1F DUP3 ADD AND DUP3 ADD DUP1 PUSH1 0x40 MSTORE POP DUP2 ADD SWAP1 PUSH2 0x966 SWAP2 SWAP1 PUSH2 0x147B JUMP JUMPDEST POP DUP2 PUSH20 0xFFFFFFFFFFFFFFFFFFFFFFFFFFFFFFFFFFFFFFFF AND PUSH4 0x38ED1739 DUP6 PUSH1 0x1 DUP11 ADDRESS DUP9 PUSH1 0x40 MLOAD DUP7 PUSH4 0xFFFFFFFF AND PUSH1 0xE0 SHL DUP2 MSTORE PUSH1 0x4 ADD PUSH2 0x9A9 SWAP6 SWAP5 SWAP4 SWAP3 SWAP2 SWAP1 PUSH2 0x1B63 JUMP JUMPDEST PUSH1 0x0 PUSH1 0x40 MLOAD DUP1 DUP4 SUB DUP2 PUSH1 0x0 DUP8 GAS CALL ISZERO DUP1 ISZERO PUSH2 0x9C8 JUMPI RETURNDATASIZE PUSH1 0x0 DUP1 RETURNDATACOPY RETURNDATASIZE PUSH1 0x0 REVERT JUMPDEST POP POP POP POP PUSH1 0x40 MLOAD RETURNDATASIZE PUSH1 0x0 DUP3 RETURNDATACOPY RETURNDATASIZE PUSH1 0x1F NOT PUSH1 0x1F DUP3 ADD AND DUP3 ADD DUP1 PUSH1 0x40 MSTORE POP DUP2 ADD SWAP1 PUSH2 0x9F1 SWAP2 SWAP1 PUSH2 0x1C54 JUMP JUMPDEST POP PUSH1 0x0 DUP8 PUSH1 0x1 DUP2 MLOAD DUP2 LT PUSH2 0xA08 JUMPI PUSH2 0xA07 PUSH2 0x1285 JUMP JUMPDEST JUMPDEST PUSH1 0x20 MUL PUSH1 0x20 ADD ADD MLOAD PUSH20 0xFFFFFFFFFFFFFFFFFFFFFFFFFFFFFFFFFFFFFFFF AND PUSH4 0x70A08231 ADDRESS PUSH1 0x40 MLOAD DUP3 PUSH4 0xFFFFFFFF AND PUSH1 0xE0 SHL DUP2 MSTORE PUSH1 0x4 ADD PUSH2 0xA48 SWAP2 SWAP1 PUSH2 0xC03 JUMP JUMPDEST PUSH1 0x20 PUSH1 0x40 MLOAD DUP1 DUP4 SUB DUP2 DUP7 GAS STATICCALL ISZERO DUP1 ISZERO PUSH2 0xA65 JUMPI RETURNDATASIZE PUSH1 0x0 DUP1 RETURNDATACOPY RETURNDATASIZE PUSH1 0x0 REVERT JUMPDEST POP POP POP POP PUSH1 0x40 MLOAD RETURNDATASIZE PUSH1 0x1F NOT PUSH1 0x1F DUP3 ADD AND DUP3 ADD DUP1 PUSH1 0x40 MSTORE POP DUP2 ADD SWAP1 PUSH2 0xA89 SWAP2 SWAP1 PUSH2 0x13DE JUMP JUMPDEST SWAP1 POP DUP7 PUSH1 0x0 DUP2 MLOAD DUP2 LT PUSH2 0xA9F JUMPI PUSH2 0xA9E PUSH2 0x1285 JUMP JUMPDEST JUMPDEST PUSH1 0x20 MUL PUSH1 0x20 ADD ADD MLOAD PUSH20 0xFFFFFFFFFFFFFFFFFFFFFFFFFFFFFFFFFFFFFFFF AND PUSH4 0x95EA7B3 DUP4 DUP4 PUSH1 0x40 MLOAD DUP4 PUSH4 0xFFFFFFFF AND PUSH1 0xE0 SHL DUP2 MSTORE PUSH1 0x4 ADD PUSH2 0xAE1 SWAP3 SWAP2 SWAP1 PUSH2 0x141A JUMP JUMPDEST PUSH1 0x20 PUSH1 0x40 MLOAD DUP1 DUP4 SUB DUP2 PUSH1 0x0 DUP8 GAS CALL ISZERO DUP1 ISZERO PUSH2 0xB00 JUMPI RETURNDATASIZE PUSH1 0x0 DUP1 RETURNDATACOPY RETURNDATASIZE PUSH1 0x0 REVERT JUMPDEST POP POP POP POP PUSH1 0x40 MLOAD RETURNDATASIZE PUSH1 0x1F NOT PUSH1 0x1F DUP3 ADD AND DUP3 ADD DUP1 PUSH1 0x40 MSTORE POP DUP2 ADD SWAP1 PUSH2 0xB24 SWAP2 SWAP1 PUSH2 0x147B JUMP JUMPDEST POP DUP2 PUSH20 0xFFFFFFFFFFFFFFFFFFFFFFFFFFFFFFFFFFFFFFFF AND PUSH4 0x38ED1739 DUP3 PUSH1 0x1 DUP11 ADDRESS DUP10 PUSH1 0x40 MLOAD DUP7 PUSH4 0xFFFFFFFF AND PUSH1 0xE0 SHL DUP2 MSTORE PUSH1 0x4 ADD PUSH2 0xB67 SWAP6 SWAP5 SWAP4 SWAP3 SWAP2 SWAP1 PUSH2 0x1B63 JUMP JUMPDEST PUSH1 0x0 PUSH1 0x40 MLOAD DUP1 DUP4 SUB DUP2 PUSH1 0x0 DUP8 GAS CALL ISZERO DUP1 ISZERO PUSH2 0xB86 JUMPI RETURNDATASIZE PUSH1 0x0 DUP1 RETURNDATACOPY RETURNDATASIZE PUSH1 0x0 REVERT JUMPDEST POP POP POP POP PUSH1 0x40 MLOAD RETURNDATASIZE PUSH1 0x0 DUP3 RETURNDATACOPY RETURNDATASIZE PUSH1 0x1F NOT PUSH1 0x1F DUP3 ADD AND DUP3 ADD DUP1 PUSH1 0x40 MSTORE POP DUP2 ADD SWAP1 PUSH2 0xBAF SWAP2 SWAP1 PUSH2 0x1C54 JUMP JUMPDEST POP POP POP POP POP POP POP POP POP JUMP JUMPDEST PUSH1 0x0 CALLER SWAP1 POP SWAP1 JUMP JUMPDEST PUSH1 0x0 PUSH20 0xFFFFFFFFFFFFFFFFFFFFFFFFFFFFFFFFFFFFFFFF DUP3 AND SWAP1 POP SWAP2 SWAP1 POP JUMP JUMPDEST PUSH1 0x0 PUSH2 0xBED DUP3 PUSH2 0xBC2 JUMP JUMPDEST SWAP1 POP SWAP2 SWAP1 POP JUMP JUMPDEST PUSH2 0xBFD DUP2 PUSH2 0xBE2 JUMP JUMPDEST DUP3 MSTORE POP POP JUMP JUMPDEST PUSH1 0x0 PUSH1 0x20 DUP3 ADD SWAP1 POP PUSH2 0xC18 PUSH1 0x0 DUP4 ADD DUP5 PUSH2 0xBF4 JUMP JUMPDEST SWAP3 SWAP2 POP POP JUMP JUMPDEST PUSH1 0x0 PUSH1 0x40 MLOAD SWAP1 POP SWAP1 JUMP JUMPDEST PUSH1 0x0 DUP1 REVERT JUMPDEST PUSH1 0x0 DUP1 REVERT JUMPDEST PUSH2 0xC3B DUP2 PUSH2 0xBE2 JUMP JUMPDEST DUP2 EQ PUSH2 0xC46 JUMPI PUSH1 0x0 DUP1 REVERT JUMPDEST POP JUMP JUMPDEST PUSH1 0x0 DUP2 CALLDATALOAD SWAP1 POP PUSH2 0xC58 DUP2 PUSH2 0xC32 JUMP JUMPDEST SWAP3 SWAP2 POP POP JUMP JUMPDEST PUSH1 0x0 DUP2 SWAP1 POP SWAP2 SWAP1 POP JUMP JUMPDEST PUSH2 0xC71 DUP2 PUSH2 0xC5E JUMP JUMPDEST DUP2 EQ PUSH2 0xC7C JUMPI PUSH1 0x0 DUP1 REVERT JUMPDEST POP JUMP JUMPDEST PUSH1 0x0 DUP2 CALLDATALOAD SWAP1 POP PUSH2 0xC8E DUP2 PUSH2 0xC68 JUMP JUMPDEST SWAP3 SWAP2 POP POP JUMP JUMPDEST PUSH1 0x0 DUP1 REVERT JUMPDEST PUSH1 0x0 DUP1 REVERT JUMPDEST PUSH1 0x0 DUP1 REVERT JUMPDEST PUSH1 0x0 DUP1 DUP4 PUSH1 0x1F DUP5 ADD SLT PUSH2 0xCB9 JUMPI PUSH2 0xCB8 PUSH2 0xC94 JUMP JUMPDEST JUMPDEST DUP3 CALLDATALOAD SWAP1 POP PUSH8 0xFFFFFFFFFFFFFFFF DUP2 GT ISZERO PUSH2 0xCD6 JUMPI PUSH2 0xCD5 PUSH2 0xC99 JUMP JUMPDEST JUMPDEST PUSH1 0x20 DUP4 ADD SWAP2 POP DUP4 PUSH1 0x20 DUP3 MUL DUP4 ADD GT ISZERO PUSH2 0xCF2 JUMPI PUSH2 0xCF1 PUSH2 0xC9E JUMP JUMPDEST JUMPDEST SWAP3 POP SWAP3 SWAP1 POP JUMP JUMPDEST PUSH1 0x0 DUP1 PUSH1 0x0 DUP1 PUSH1 0x0 DUP1 PUSH1 0x0 DUP1 PUSH1 0xA0 DUP10 DUP12 SUB SLT ISZERO PUSH2 0xD19 JUMPI PUSH2 0xD18 PUSH2 0xC28 JUMP JUMPDEST JUMPDEST PUSH1 0x0 PUSH2 0xD27 DUP12 DUP3 DUP13 ADD PUSH2 0xC49 JUMP JUMPDEST SWAP9 POP POP PUSH1 0x20 PUSH2 0xD38 DUP12 DUP3 DUP13 ADD PUSH2 0xC7F JUMP JUMPDEST SWAP8 POP POP PUSH1 0x40 DUP10 ADD CALLDATALOAD PUSH8 0xFFFFFFFFFFFFFFFF DUP2 GT ISZERO PUSH2 0xD59 JUMPI PUSH2 0xD58 PUSH2 0xC2D JUMP JUMPDEST JUMPDEST PUSH2 0xD65 DUP12 DUP3 DUP13 ADD PUSH2 0xCA3 JUMP JUMPDEST SWAP7 POP SWAP7 POP POP PUSH1 0x60 DUP10 ADD CALLDATALOAD PUSH8 0xFFFFFFFFFFFFFFFF DUP2 GT ISZERO PUSH2 0xD88 JUMPI PUSH2 0xD87 PUSH2 0xC2D JUMP JUMPDEST JUMPDEST PUSH2 0xD94 DUP12 DUP3 DUP13 ADD PUSH2 0xCA3 JUMP JUMPDEST SWAP5 POP SWAP5 POP POP PUSH1 0x80 DUP10 ADD CALLDATALOAD PUSH8 0xFFFFFFFFFFFFFFFF DUP2 GT ISZERO PUSH2 0xDB7 JUMPI PUSH2 0xDB6 PUSH2 0xC2D JUMP JUMPDEST JUMPDEST PUSH2 0xDC3 DUP12 DUP3 DUP13 ADD PUSH2 0xCA3 JUMP JUMPDEST SWAP3 POP SWAP3 POP POP SWAP3 SWAP6 SWAP9 POP SWAP3 SWAP6 SWAP9 SWAP1 SWAP4 SWAP7 POP JUMP JUMPDEST PUSH1 0x0 PUSH2 0xDE0 DUP3 PUSH2 0xBE2 JUMP JUMPDEST SWAP1 POP SWAP2 SWAP1 POP JUMP JUMPDEST PUSH2 0xDF0 DUP2 PUSH2 0xDD5 JUMP JUMPDEST DUP2 EQ PUSH2 0xDFB JUMPI PUSH1 0x0 DUP1 REVERT JUMPDEST POP JUMP JUMPDEST PUSH1 0x0 DUP2 CALLDATALOAD SWAP1 POP PUSH2 0xE0D DUP2 PUSH2 0xDE7 JUMP JUMPDEST SWAP3 SWAP2 POP POP JUMP JUMPDEST PUSH1 0x0 PUSH1 0x20 DUP3 DUP5 SUB SLT ISZERO PUSH2 0xE29 JUMPI PUSH2 0xE28 PUSH2 0xC28 JUMP JUMPDEST JUMPDEST PUSH1 0x0 PUSH2 0xE37 DUP5 DUP3 DUP6 ADD PUSH2 0xDFE JUMP JUMPDEST SWAP2 POP POP SWAP3 SWAP2 POP POP JUMP JUMPDEST PUSH1 0x0 PUSH1 0x1F NOT PUSH1 0x1F DUP4 ADD AND SWAP1 POP SWAP2 SWAP1 POP JUMP JUMPDEST PUSH32 0x4E487B7100000000000000000000000000000000000000000000000000000000 PUSH1 0x0 MSTORE PUSH1 0x41 PUSH1 0x4 MSTORE PUSH1 0x24 PUSH1 0x0 REVERT JUMPDEST PUSH2 0xE89 DUP3 PUSH2 0xE40 JUMP JUMPDEST DUP2 ADD DUP2 DUP2 LT PUSH8 0xFFFFFFFFFFFFFFFF DUP3 GT OR ISZERO PUSH2 0xEA8 JUMPI PUSH2 0xEA7 PUSH2 0xE51 JUMP JUMPDEST JUMPDEST DUP1 PUSH1 0x40 MSTORE POP POP POP JUMP JUMPDEST PUSH1 0x0 PUSH2 0xEBB PUSH2 0xC1E JUMP JUMPDEST SWAP1 POP PUSH2 0xEC7 DUP3 DUP3 PUSH2 0xE80 JUMP JUMPDEST SWAP2 SWAP1 POP JUMP JUMPDEST PUSH1 0x0 PUSH8 0xFFFFFFFFFFFFFFFF DUP3 GT ISZERO PUSH2 0xEE7 JUMPI PUSH2 0xEE6 PUSH2 0xE51 JUMP JUMPDEST JUMPDEST PUSH1 0x20 DUP3 MUL SWAP1 POP PUSH1 0x20 DUP2 ADD SWAP1 POP SWAP2 SWAP1 POP JUMP JUMPDEST PUSH1 0x0 PUSH2 0xF0B PUSH2 0xF06 DUP5 PUSH2 0xECC JUMP JUMPDEST PUSH2 0xEB1 JUMP JUMPDEST SWAP1 POP DUP1 DUP4 DUP3 MSTORE PUSH1 0x20 DUP3 ADD SWAP1 POP PUSH1 0x20 DUP5 MUL DUP4 ADD DUP6 DUP2 GT ISZERO PUSH2 0xF2E JUMPI PUSH2 0xF2D PUSH2 0xC9E JUMP JUMPDEST JUMPDEST DUP4 JUMPDEST DUP2 DUP2 LT ISZERO PUSH2 0xF57 JUMPI DUP1 PUSH2 0xF43 DUP9 DUP3 PUSH2 0xDFE JUMP JUMPDEST DUP5 MSTORE PUSH1 0x20 DUP5 ADD SWAP4 POP POP PUSH1 0x20 DUP2 ADD SWAP1 POP PUSH2 0xF30 JUMP JUMPDEST POP POP POP SWAP4 SWAP3 POP POP POP JUMP JUMPDEST PUSH1 0x0 DUP3 PUSH1 0x1F DUP4 ADD SLT PUSH2 0xF76 JUMPI PUSH2 0xF75 PUSH2 0xC94 JUMP JUMPDEST JUMPDEST DUP2 CALLDATALOAD PUSH2 0xF86 DUP5 DUP3 PUSH1 0x20 DUP7 ADD PUSH2 0xEF8 JUMP JUMPDEST SWAP2 POP POP SWAP3 SWAP2 POP POP JUMP JUMPDEST PUSH1 0x0 PUSH8 0xFFFFFFFFFFFFFFFF DUP3 GT ISZERO PUSH2 0xFAA JUMPI PUSH2 0xFA9 PUSH2 0xE51 JUMP JUMPDEST JUMPDEST PUSH1 0x20 DUP3 MUL SWAP1 POP PUSH1 0x20 DUP2 ADD SWAP1 POP SWAP2 SWAP1 POP JUMP JUMPDEST PUSH1 0x0 PUSH2 0xFCE PUSH2 0xFC9 DUP5 PUSH2 0xF8F JUMP JUMPDEST PUSH2 0xEB1 JUMP JUMPDEST SWAP1 POP DUP1 DUP4 DUP3 MSTORE PUSH1 0x20 DUP3 ADD SWAP1 POP PUSH1 0x20 DUP5 MUL DUP4 ADD DUP6 DUP2 GT ISZERO PUSH2 0xFF1 JUMPI PUSH2 0xFF0 PUSH2 0xC9E JUMP JUMPDEST JUMPDEST DUP4 JUMPDEST DUP2 DUP2 LT ISZERO PUSH2 0x101A JUMPI DUP1 PUSH2 0x1006 DUP9 DUP3 PUSH2 0xC7F JUMP JUMPDEST DUP5 MSTORE PUSH1 0x20 DUP5 ADD SWAP4 POP POP PUSH1 0x20 DUP2 ADD SWAP1 POP PUSH2 0xFF3 JUMP JUMPDEST POP POP POP SWAP4 SWAP3 POP POP POP JUMP JUMPDEST PUSH1 0x0 DUP3 PUSH1 0x1F DUP4 ADD SLT PUSH2 0x1039 JUMPI PUSH2 0x1038 PUSH2 0xC94 JUMP JUMPDEST JUMPDEST DUP2 CALLDATALOAD PUSH2 0x1049 DUP5 DUP3 PUSH1 0x20 DUP7 ADD PUSH2 0xFBB JUMP JUMPDEST SWAP2 POP POP SWAP3 SWAP2 POP POP JUMP JUMPDEST PUSH1 0x0 DUP1 REVERT JUMPDEST PUSH1 0x0 PUSH8 0xFFFFFFFFFFFFFFFF DUP3 GT ISZERO PUSH2 0x1072 JUMPI PUSH2 0x1071 PUSH2 0xE51 JUMP JUMPDEST JUMPDEST PUSH2 0x107B DUP3 PUSH2 0xE40 JUMP JUMPDEST SWAP1 POP PUSH1 0x20 DUP2 ADD SWAP1 POP SWAP2 SWAP1 POP JUMP JUMPDEST DUP3 DUP2 DUP4 CALLDATACOPY PUSH1 0x0 DUP4 DUP4 ADD MSTORE POP POP POP JUMP JUMPDEST PUSH1 0x0 PUSH2 0x10AA PUSH2 0x10A5 DUP5 PUSH2 0x1057 JUMP JUMPDEST PUSH2 0xEB1 JUMP JUMPDEST SWAP1 POP DUP3 DUP2 MSTORE PUSH1 0x20 DUP2 ADD DUP5 DUP5 DUP5 ADD GT ISZERO PUSH2 0x10C6 JUMPI PUSH2 0x10C5 PUSH2 0x1052 JUMP JUMPDEST JUMPDEST PUSH2 0x10D1 DUP5 DUP3 DUP6 PUSH2 0x1088 JUMP JUMPDEST POP SWAP4 SWAP3 POP POP POP JUMP JUMPDEST PUSH1 0x0 DUP3 PUSH1 0x1F DUP4 ADD SLT PUSH2 0x10EE JUMPI PUSH2 0x10ED PUSH2 0xC94 JUMP JUMPDEST JUMPDEST DUP2 CALLDATALOAD PUSH2 0x10FE DUP5 DUP3 PUSH1 0x20 DUP7 ADD PUSH2 0x1097 JUMP JUMPDEST SWAP2 POP POP SWAP3 SWAP2 POP POP JUMP JUMPDEST PUSH1 0x0 DUP1 PUSH1 0x0 DUP1 PUSH1 0x80 DUP6 DUP8 SUB SLT ISZERO PUSH2 0x1121 JUMPI PUSH2 0x1120 PUSH2 0xC28 JUMP JUMPDEST JUMPDEST PUSH1 0x0 DUP6 ADD CALLDATALOAD PUSH8 0xFFFFFFFFFFFFFFFF DUP2 GT ISZERO PUSH2 0x113F JUMPI PUSH2 0x113E PUSH2 0xC2D JUMP JUMPDEST JUMPDEST PUSH2 0x114B DUP8 DUP3 DUP9 ADD PUSH2 0xF61 JUMP JUMPDEST SWAP5 POP POP PUSH1 0x20 DUP6 ADD CALLDATALOAD PUSH8 0xFFFFFFFFFFFFFFFF DUP2 GT ISZERO PUSH2 0x116C JUMPI PUSH2 0x116B PUSH2 0xC2D JUMP JUMPDEST JUMPDEST PUSH2 0x1178 DUP8 DUP3 DUP9 ADD PUSH2 0x1024 JUMP JUMPDEST SWAP4 POP POP PUSH1 0x40 DUP6 ADD CALLDATALOAD PUSH8 0xFFFFFFFFFFFFFFFF DUP2 GT ISZERO PUSH2 0x1199 JUMPI PUSH2 0x1198 PUSH2 0xC2D JUMP JUMPDEST JUMPDEST PUSH2 0x11A5 DUP8 DUP3 DUP9 ADD PUSH2 0x1024 JUMP JUMPDEST SWAP3 POP POP PUSH1 0x60 DUP6 ADD CALLDATALOAD PUSH8 0xFFFFFFFFFFFFFFFF DUP2 GT ISZERO PUSH2 0x11C6 JUMPI PUSH2 0x11C5 PUSH2 0xC2D JUMP JUMPDEST JUMPDEST PUSH2 0x11D2 DUP8 DUP3 DUP9 ADD PUSH2 0x10D9 JUMP JUMPDEST SWAP2 POP POP SWAP3 SWAP6 SWAP2 SWAP5 POP SWAP3 POP JUMP JUMPDEST PUSH1 0x0 PUSH1 0x20 DUP3 DUP5 SUB SLT ISZERO PUSH2 0x11F4 JUMPI PUSH2 0x11F3 PUSH2 0xC28 JUMP JUMPDEST JUMPDEST PUSH1 0x0 PUSH2 0x1202 DUP5 DUP3 DUP6 ADD PUSH2 0xC49 JUMP JUMPDEST SWAP2 POP POP SWAP3 SWAP2 POP POP JUMP JUMPDEST PUSH1 0x0 DUP2 SWAP1 POP SWAP2 SWAP1 POP JUMP JUMPDEST PUSH1 0x0 PUSH2 0x1230 PUSH2 0x122B PUSH2 0x1226 DUP5 PUSH2 0xBC2 JUMP JUMPDEST PUSH2 0x120B JUMP JUMPDEST PUSH2 0xBC2 JUMP JUMPDEST SWAP1 POP SWAP2 SWAP1 POP JUMP JUMPDEST PUSH1 0x0 PUSH2 0x1242 DUP3 PUSH2 0x1215 JUMP JUMPDEST SWAP1 POP SWAP2 SWAP1 POP JUMP JUMPDEST PUSH1 0x0 PUSH2 0x1254 DUP3 PUSH2 0x1237 JUMP JUMPDEST SWAP1 POP SWAP2 SWAP1 POP JUMP JUMPDEST PUSH2 0x1264 DUP2 PUSH2 0x1249 JUMP JUMPDEST DUP3 MSTORE POP POP JUMP JUMPDEST PUSH1 0x0 PUSH1 0x20 DUP3 ADD SWAP1 POP PUSH2 0x127F PUSH1 0x0 DUP4 ADD DUP5 PUSH2 0x125B JUMP JUMPDEST SWAP3 SWAP2 POP POP JUMP JUMPDEST PUSH32 0x4E487B7100000000000000000000000000000000000000000000000000000000 PUSH1 0x0 MSTORE PUSH1 0x32 PUSH1 0x4 MSTORE PUSH1 0x24 PUSH1 0x0 REVERT JUMPDEST PUSH1 0x0 DUP3 DUP3 MSTORE PUSH1 0x20 DUP3 ADD SWAP1 POP SWAP3 SWAP2 POP POP JUMP JUMPDEST PUSH1 0x0 DUP2 SWAP1 POP SWAP2 SWAP1 POP JUMP JUMPDEST PUSH2 0x12D8 DUP2 PUSH2 0xBE2 JUMP JUMPDEST DUP3 MSTORE POP POP JUMP JUMPDEST PUSH1 0x0 PUSH2 0x12EA DUP4 DUP4 PUSH2 0x12CF JUMP JUMPDEST PUSH1 0x20 DUP4 ADD SWAP1 POP SWAP3 SWAP2 POP POP JUMP JUMPDEST PUSH1 0x0 PUSH2 0x1305 PUSH1 0x20 DUP5 ADD DUP5 PUSH2 0xC49 JUMP JUMPDEST SWAP1 POP SWAP3 SWAP2 POP POP JUMP JUMPDEST PUSH1 0x0 PUSH1 0x20 DUP3 ADD SWAP1 POP SWAP2 SWAP1 POP JUMP JUMPDEST PUSH1 0x0 PUSH2 0x1326 DUP4 DUP6 PUSH2 0x12B4 JUMP JUMPDEST SWAP4 POP PUSH2 0x1331 DUP3 PUSH2 0x12C5 JUMP JUMPDEST DUP1 PUSH1 0x0 JUMPDEST DUP6 DUP2 LT ISZERO PUSH2 0x136A JUMPI PUSH2 0x1347 DUP3 DUP5 PUSH2 0x12F6 JUMP JUMPDEST PUSH2 0x1351 DUP9 DUP3 PUSH2 0x12DE JUMP JUMPDEST SWAP8 POP PUSH2 0x135C DUP4 PUSH2 0x130D JUMP JUMPDEST SWAP3 POP POP PUSH1 0x1 DUP2 ADD SWAP1 POP PUSH2 0x1335 JUMP JUMPDEST POP DUP6 SWAP3 POP POP POP SWAP4 SWAP3 POP POP POP JUMP JUMPDEST PUSH1 0x0 PUSH1 0x60 DUP3 ADD SWAP1 POP DUP2 DUP2 SUB PUSH1 0x0 DUP4 ADD MSTORE PUSH2 0x1392 DUP2 DUP9 DUP11 PUSH2 0x131A JUMP JUMPDEST SWAP1 POP DUP2 DUP2 SUB PUSH1 0x20 DUP4 ADD MSTORE PUSH2 0x13A7 DUP2 DUP7 DUP9 PUSH2 0x131A JUMP JUMPDEST SWAP1 POP DUP2 DUP2 SUB PUSH1 0x40 DUP4 ADD MSTORE PUSH2 0x13BC DUP2 DUP5 DUP7 PUSH2 0x131A JUMP JUMPDEST SWAP1 POP SWAP8 SWAP7 POP POP POP POP POP POP POP JUMP JUMPDEST PUSH1 0x0 DUP2 MLOAD SWAP1 POP PUSH2 0x13D8 DUP2 PUSH2 0xC68 JUMP JUMPDEST SWAP3 SWAP2 POP POP JUMP JUMPDEST PUSH1 0x0 PUSH1 0x20 DUP3 DUP5 SUB SLT ISZERO PUSH2 0x13F4 JUMPI PUSH2 0x13F3 PUSH2 0xC28 JUMP JUMPDEST JUMPDEST PUSH1 0x0 PUSH2 0x1402 DUP5 DUP3 DUP6 ADD PUSH2 0x13C9 JUMP JUMPDEST SWAP2 POP POP SWAP3 SWAP2 POP POP JUMP JUMPDEST PUSH2 0x1414 DUP2 PUSH2 0xC5E JUMP JUMPDEST DUP3 MSTORE POP POP JUMP JUMPDEST PUSH1 0x0 PUSH1 0x40 DUP3 ADD SWAP1 POP PUSH2 0x142F PUSH1 0x0 DUP4 ADD DUP6 PUSH2 0xBF4 JUMP JUMPDEST PUSH2 0x143C PUSH1 0x20 DUP4 ADD DUP5 PUSH2 0x140B JUMP JUMPDEST SWAP4 SWAP3 POP POP POP JUMP JUMPDEST PUSH1 0x0 DUP2 ISZERO ISZERO SWAP1 POP SWAP2 SWAP1 POP JUMP JUMPDEST PUSH2 0x1458 DUP2 PUSH2 0x1443 JUMP JUMPDEST DUP2 EQ PUSH2 0x1463 JUMPI PUSH1 0x0 DUP1 REVERT JUMPDEST POP JUMP JUMPDEST PUSH1 0x0 DUP2 MLOAD SWAP1 POP PUSH2 0x1475 DUP2 PUSH2 0x144F JUMP JUMPDEST SWAP3 SWAP2 POP POP JUMP JUMPDEST PUSH1 0x0 PUSH1 0x20 DUP3 DUP5 SUB SLT ISZERO PUSH2 0x1491 JUMPI PUSH2 0x1490 PUSH2 0xC28 JUMP JUMPDEST JUMPDEST PUSH1 0x0 PUSH2 0x149F DUP5 DUP3 DUP6 ADD PUSH2 0x1466 JUMP JUMPDEST SWAP2 POP POP SWAP3 SWAP2 POP POP JUMP JUMPDEST PUSH1 0x0 DUP3 DUP3 MSTORE PUSH1 0x20 DUP3 ADD SWAP1 POP SWAP3 SWAP2 POP POP JUMP JUMPDEST PUSH32 0x4D6573736167652073656E646572206D7573742062652042616C616E63657220 PUSH1 0x0 DUP3 ADD MSTORE PUSH32 0x5661756C74210000000000000000000000000000000000000000000000000000 PUSH1 0x20 DUP3 ADD MSTORE POP JUMP JUMPDEST PUSH1 0x0 PUSH2 0x1515 PUSH1 0x26 DUP4 PUSH2 0x14A8 JUMP JUMPDEST SWAP2 POP PUSH2 0x1520 DUP3 PUSH2 0x14B9 JUMP JUMPDEST PUSH1 0x40 DUP3 ADD SWAP1 POP SWAP2 SWAP1 POP JUMP JUMPDEST PUSH1 0x0 PUSH1 0x20 DUP3 ADD SWAP1 POP DUP2 DUP2 SUB PUSH1 0x0 DUP4 ADD MSTORE PUSH2 0x1544 DUP2 PUSH2 0x1508 JUMP JUMPDEST SWAP1 POP SWAP2 SWAP1 POP JUMP JUMPDEST PUSH1 0x0 PUSH8 0xFFFFFFFFFFFFFFFF DUP3 GT ISZERO PUSH2 0x1566 JUMPI PUSH2 0x1565 PUSH2 0xE51 JUMP JUMPDEST JUMPDEST PUSH1 0x20 DUP3 MUL SWAP1 POP PUSH1 0x20 DUP2 ADD SWAP1 POP SWAP2 SWAP1 POP JUMP JUMPDEST PUSH1 0x0 DUP2 MLOAD SWAP1 POP PUSH2 0x1586 DUP2 PUSH2 0xC32 JUMP JUMPDEST SWAP3 SWAP2 POP POP JUMP JUMPDEST PUSH1 0x0 PUSH2 0x159F PUSH2 0x159A DUP5 PUSH2 0x154B JUMP JUMPDEST PUSH2 0xEB1 JUMP JUMPDEST SWAP1 POP DUP1 DUP4 DUP3 MSTORE PUSH1 0x20 DUP3 ADD SWAP1 POP PUSH1 0x20 DUP5 MUL DUP4 ADD DUP6 DUP2 GT ISZERO PUSH2 0x15C2 JUMPI PUSH2 0x15C1 PUSH2 0xC9E JUMP JUMPDEST JUMPDEST DUP4 JUMPDEST DUP2 DUP2 LT ISZERO PUSH2 0x15EB JUMPI DUP1 PUSH2 0x15D7 DUP9 DUP3 PUSH2 0x1577 JUMP JUMPDEST DUP5 MSTORE PUSH1 0x20 DUP5 ADD SWAP4 POP POP PUSH1 0x20 DUP2 ADD SWAP1 POP PUSH2 0x15C4 JUMP JUMPDEST POP POP POP SWAP4 SWAP3 POP POP POP JUMP JUMPDEST PUSH1 0x0 DUP3 PUSH1 0x1F DUP4 ADD SLT PUSH2 0x160A JUMPI PUSH2 0x1609 PUSH2 0xC94 JUMP JUMPDEST JUMPDEST DUP2 MLOAD PUSH2 0x161A DUP5 DUP3 PUSH1 0x20 DUP7 ADD PUSH2 0x158C JUMP JUMPDEST SWAP2 POP POP SWAP3 SWAP2 POP POP JUMP JUMPDEST PUSH1 0x0 DUP1 PUSH1 0x0 PUSH1 0x60 DUP5 DUP7 SUB SLT ISZERO PUSH2 0x163C JUMPI PUSH2 0x163B PUSH2 0xC28 JUMP JUMPDEST JUMPDEST PUSH1 0x0 DUP5 ADD MLOAD PUSH8 0xFFFFFFFFFFFFFFFF DUP2 GT ISZERO PUSH2 0x165A JUMPI PUSH2 0x1659 PUSH2 0xC2D JUMP JUMPDEST JUMPDEST PUSH2 0x1666 DUP7 DUP3 DUP8 ADD PUSH2 0x15F5 JUMP JUMPDEST SWAP4 POP POP PUSH1 0x20 DUP5 ADD MLOAD PUSH8 0xFFFFFFFFFFFFFFFF DUP2 GT ISZERO PUSH2 0x1687 JUMPI PUSH2 0x1686 PUSH2 0xC2D JUMP JUMPDEST JUMPDEST PUSH2 0x1693 DUP7 DUP3 DUP8 ADD PUSH2 0x15F5 JUMP JUMPDEST SWAP3 POP POP PUSH1 0x40 DUP5 ADD MLOAD PUSH8 0xFFFFFFFFFFFFFFFF DUP2 GT ISZERO PUSH2 0x16B4 JUMPI PUSH2 0x16B3 PUSH2 0xC2D JUMP JUMPDEST JUMPDEST PUSH2 0x16C0 DUP7 DUP3 DUP8 ADD PUSH2 0x15F5 JUMP JUMPDEST SWAP2 POP POP SWAP3 POP SWAP3 POP SWAP3 JUMP JUMPDEST PUSH32 0x4F776E61626C653A206E6577206F776E657220697320746865207A65726F2061 PUSH1 0x0 DUP3 ADD MSTORE PUSH32 0x6464726573730000000000000000000000000000000000000000000000000000 PUSH1 0x20 DUP3 ADD MSTORE POP JUMP JUMPDEST PUSH1 0x0 PUSH2 0x1726 PUSH1 0x26 DUP4 PUSH2 0x14A8 JUMP JUMPDEST SWAP2 POP PUSH2 0x1731 DUP3 PUSH2 0x16CA JUMP JUMPDEST PUSH1 0x40 DUP3 ADD SWAP1 POP SWAP2 SWAP1 POP JUMP JUMPDEST PUSH1 0x0 PUSH1 0x20 DUP3 ADD SWAP1 POP DUP2 DUP2 SUB PUSH1 0x0 DUP4 ADD MSTORE PUSH2 0x1755 DUP2 PUSH2 0x1719 JUMP JUMPDEST SWAP1 POP SWAP2 SWAP1 POP JUMP JUMPDEST PUSH32 0x4F776E61626C653A2063616C6C6572206973206E6F7420746865206F776E6572 PUSH1 0x0 DUP3 ADD MSTORE POP JUMP JUMPDEST PUSH1 0x0 PUSH2 0x1792 PUSH1 0x20 DUP4 PUSH2 0x14A8 JUMP JUMPDEST SWAP2 POP PUSH2 0x179D DUP3 PUSH2 0x175C JUMP JUMPDEST PUSH1 0x20 DUP3 ADD SWAP1 POP SWAP2 SWAP1 POP JUMP JUMPDEST PUSH1 0x0 PUSH1 0x20 DUP3 ADD SWAP1 POP DUP2 DUP2 SUB PUSH1 0x0 DUP4 ADD MSTORE PUSH2 0x17C1 DUP2 PUSH2 0x1785 JUMP JUMPDEST SWAP1 POP SWAP2 SWAP1 POP JUMP JUMPDEST PUSH1 0x0 PUSH2 0x17D3 DUP3 PUSH2 0x1237 JUMP JUMPDEST SWAP1 POP SWAP2 SWAP1 POP JUMP JUMPDEST PUSH2 0x17E3 DUP2 PUSH2 0x17C8 JUMP JUMPDEST DUP3 MSTORE POP POP JUMP JUMPDEST PUSH1 0x0 DUP2 MLOAD SWAP1 POP SWAP2 SWAP1 POP JUMP JUMPDEST PUSH1 0x0 DUP2 SWAP1 POP PUSH1 0x20 DUP3 ADD SWAP1 POP SWAP2 SWAP1 POP JUMP JUMPDEST PUSH1 0x0 PUSH2 0x180F DUP3 PUSH2 0x1237 JUMP JUMPDEST SWAP1 POP SWAP2 SWAP1 POP JUMP JUMPDEST PUSH2 0x181F DUP2 PUSH2 0x1804 JUMP JUMPDEST DUP3 MSTORE POP POP JUMP JUMPDEST PUSH1 0x0 PUSH2 0x1831 DUP4 DUP4 PUSH2 0x1816 JUMP JUMPDEST PUSH1 0x20 DUP4 ADD SWAP1 POP SWAP3 SWAP2 POP POP JUMP JUMPDEST PUSH1 0x0 PUSH1 0x20 DUP3 ADD SWAP1 POP SWAP2 SWAP1 POP JUMP JUMPDEST PUSH1 0x0 PUSH2 0x1855 DUP3 PUSH2 0x17E9 JUMP JUMPDEST PUSH2 0x185F DUP2 DUP6 PUSH2 0x12B4 JUMP JUMPDEST SWAP4 POP PUSH2 0x186A DUP4 PUSH2 0x17F4 JUMP JUMPDEST DUP1 PUSH1 0x0 JUMPDEST DUP4 DUP2 LT ISZERO PUSH2 0x189B JUMPI DUP2 MLOAD PUSH2 0x1882 DUP9 DUP3 PUSH2 0x1825 JUMP JUMPDEST SWAP8 POP PUSH2 0x188D DUP4 PUSH2 0x183D JUMP JUMPDEST SWAP3 POP POP PUSH1 0x1 DUP2 ADD SWAP1 POP PUSH2 0x186E JUMP JUMPDEST POP DUP6 SWAP4 POP POP POP POP SWAP3 SWAP2 POP POP JUMP JUMPDEST PUSH1 0x0 DUP2 MLOAD SWAP1 POP SWAP2 SWAP1 POP JUMP JUMPDEST PUSH1 0x0 DUP3 DUP3 MSTORE PUSH1 0x20 DUP3 ADD SWAP1 POP SWAP3 SWAP2 POP POP JUMP JUMPDEST PUSH1 0x0 DUP2 SWAP1 POP PUSH1 0x20 DUP3 ADD SWAP1 POP SWAP2 SWAP1 POP JUMP JUMPDEST PUSH2 0x18DD DUP2 PUSH2 0xC5E JUMP JUMPDEST DUP3 MSTORE POP POP JUMP JUMPDEST PUSH1 0x0 PUSH2 0x18EF DUP4 DUP4 PUSH2 0x18D4 JUMP JUMPDEST PUSH1 0x20 DUP4 ADD SWAP1 POP SWAP3 SWAP2 POP POP JUMP JUMPDEST PUSH1 0x0 PUSH1 0x20 DUP3 ADD SWAP1 POP SWAP2 SWAP1 POP JUMP JUMPDEST PUSH1 0x0 PUSH2 0x1913 DUP3 PUSH2 0x18A8 JUMP JUMPDEST PUSH2 0x191D DUP2 DUP6 PUSH2 0x18B3 JUMP JUMPDEST SWAP4 POP PUSH2 0x1928 DUP4 PUSH2 0x18C4 JUMP JUMPDEST DUP1 PUSH1 0x0 JUMPDEST DUP4 DUP2 LT ISZERO PUSH2 0x1959 JUMPI DUP2 MLOAD PUSH2 0x1940 DUP9 DUP3 PUSH2 0x18E3 JUMP JUMPDEST SWAP8 POP PUSH2 0x194B DUP4 PUSH2 0x18FB JUMP JUMPDEST SWAP3 POP POP PUSH1 0x1 DUP2 ADD SWAP1 POP PUSH2 0x192C JUMP JUMPDEST POP DUP6 SWAP4 POP POP POP POP SWAP3 SWAP2 POP POP JUMP JUMPDEST PUSH1 0x0 DUP2 MLOAD SWAP1 POP SWAP2 SWAP1 POP JUMP JUMPDEST PUSH1 0x0 DUP3 DUP3 MSTORE PUSH1 0x20 DUP3 ADD SWAP1 POP SWAP3 SWAP2 POP POP JUMP JUMPDEST PUSH1 0x0 JUMPDEST DUP4 DUP2 LT ISZERO PUSH2 0x19A0 JUMPI DUP1 DUP3 ADD MLOAD DUP2 DUP5 ADD MSTORE PUSH1 0x20 DUP2 ADD SWAP1 POP PUSH2 0x1985 JUMP JUMPDEST PUSH1 0x0 DUP5 DUP5 ADD MSTORE POP POP POP POP JUMP JUMPDEST PUSH1 0x0 PUSH2 0x19B7 DUP3 PUSH2 0x1966 JUMP JUMPDEST PUSH2 0x19C1 DUP2 DUP6 PUSH2 0x1971 JUMP JUMPDEST SWAP4 POP PUSH2 0x19D1 DUP2 DUP6 PUSH1 0x20 DUP7 ADD PUSH2 0x1982 JUMP JUMPDEST PUSH2 0x19DA DUP2 PUSH2 0xE40 JUMP JUMPDEST DUP5 ADD SWAP2 POP POP SWAP3 SWAP2 POP POP JUMP JUMPDEST PUSH1 0x0 PUSH1 0x80 DUP3 ADD SWAP1 POP PUSH2 0x19FA PUSH1 0x0 DUP4 ADD DUP8 PUSH2 0x17DA JUMP JUMPDEST DUP2 DUP2 SUB PUSH1 0x20 DUP4 ADD MSTORE PUSH2 0x1A0C DUP2 DUP7 PUSH2 0x184A JUMP JUMPDEST SWAP1 POP DUP2 DUP2 SUB PUSH1 0x40 DUP4 ADD MSTORE PUSH2 0x1A20 DUP2 DUP6 PUSH2 0x1908 JUMP JUMPDEST SWAP1 POP DUP2 DUP2 SUB PUSH1 0x60 DUP4 ADD MSTORE PUSH2 0x1A34 DUP2 DUP5 PUSH2 0x19AC JUMP JUMPDEST SWAP1 POP SWAP6 SWAP5 POP POP POP POP POP JUMP JUMPDEST PUSH32 0x4E487B7100000000000000000000000000000000000000000000000000000000 PUSH1 0x0 MSTORE PUSH1 0x11 PUSH1 0x4 MSTORE PUSH1 0x24 PUSH1 0x0 REVERT JUMPDEST PUSH1 0x0 PUSH2 0x1A79 DUP3 PUSH2 0xC5E JUMP JUMPDEST SWAP2 POP PUSH2 0x1A84 DUP4 PUSH2 0xC5E JUMP JUMPDEST SWAP3 POP DUP3 DUP3 ADD SWAP1 POP DUP1 DUP3 GT ISZERO PUSH2 0x1A9C JUMPI PUSH2 0x1A9B PUSH2 0x1A3F JUMP JUMPDEST JUMPDEST SWAP3 SWAP2 POP POP JUMP JUMPDEST PUSH1 0x0 DUP2 SWAP1 POP SWAP2 SWAP1 POP JUMP JUMPDEST PUSH1 0x0 PUSH2 0x1AC7 PUSH2 0x1AC2 PUSH2 0x1ABD DUP5 PUSH2 0x1AA2 JUMP JUMPDEST PUSH2 0x120B JUMP JUMPDEST PUSH2 0xC5E JUMP JUMPDEST SWAP1 POP SWAP2 SWAP1 POP JUMP JUMPDEST PUSH2 0x1AD7 DUP2 PUSH2 0x1AAC JUMP JUMPDEST DUP3 MSTORE POP POP JUMP JUMPDEST PUSH1 0x0 DUP2 MLOAD SWAP1 POP SWAP2 SWAP1 POP JUMP JUMPDEST PUSH1 0x0 DUP2 SWAP1 POP PUSH1 0x20 DUP3 ADD SWAP1 POP SWAP2 SWAP1 POP JUMP JUMPDEST PUSH1 0x0 PUSH1 0x20 DUP3 ADD SWAP1 POP SWAP2 SWAP1 POP JUMP JUMPDEST PUSH1 0x0 PUSH2 0x1B10 DUP3 PUSH2 0x1ADD JUMP JUMPDEST PUSH2 0x1B1A DUP2 DUP6 PUSH2 0x12B4 JUMP JUMPDEST SWAP4 POP PUSH2 0x1B25 DUP4 PUSH2 0x1AE8 JUMP JUMPDEST DUP1 PUSH1 0x0 JUMPDEST DUP4 DUP2 LT ISZERO PUSH2 0x1B56 JUMPI DUP2 MLOAD PUSH2 0x1B3D DUP9 DUP3 PUSH2 0x12DE JUMP JUMPDEST SWAP8 POP PUSH2 0x1B48 DUP4 PUSH2 0x1AF8 JUMP JUMPDEST SWAP3 POP POP PUSH1 0x1 DUP2 ADD SWAP1 POP PUSH2 0x1B29 JUMP JUMPDEST POP DUP6 SWAP4 POP POP POP POP SWAP3 SWAP2 POP POP JUMP JUMPDEST PUSH1 0x0 PUSH1 0xA0 DUP3 ADD SWAP1 POP PUSH2 0x1B78 PUSH1 0x0 DUP4 ADD DUP9 PUSH2 0x140B JUMP JUMPDEST PUSH2 0x1B85 PUSH1 0x20 DUP4 ADD DUP8 PUSH2 0x1ACE JUMP JUMPDEST DUP2 DUP2 SUB PUSH1 0x40 DUP4 ADD MSTORE PUSH2 0x1B97 DUP2 DUP7 PUSH2 0x1B05 JUMP JUMPDEST SWAP1 POP PUSH2 0x1BA6 PUSH1 0x60 DUP4 ADD DUP6 PUSH2 0xBF4 JUMP JUMPDEST PUSH2 0x1BB3 PUSH1 0x80 DUP4 ADD DUP5 PUSH2 0x140B JUMP JUMPDEST SWAP7 SWAP6 POP POP POP POP POP POP JUMP JUMPDEST PUSH1 0x0 PUSH2 0x1BD0 PUSH2 0x1BCB DUP5 PUSH2 0xF8F JUMP JUMPDEST PUSH2 0xEB1 JUMP JUMPDEST SWAP1 POP DUP1 DUP4 DUP3 MSTORE PUSH1 0x20 DUP3 ADD SWAP1 POP PUSH1 0x20 DUP5 MUL DUP4 ADD DUP6 DUP2 GT ISZERO PUSH2 0x1BF3 JUMPI PUSH2 0x1BF2 PUSH2 0xC9E JUMP JUMPDEST JUMPDEST DUP4 JUMPDEST DUP2 DUP2 LT ISZERO PUSH2 0x1C1C JUMPI DUP1 PUSH2 0x1C08 DUP9 DUP3 PUSH2 0x13C9 JUMP JUMPDEST DUP5 MSTORE PUSH1 0x20 DUP5 ADD SWAP4 POP POP PUSH1 0x20 DUP2 ADD SWAP1 POP PUSH2 0x1BF5 JUMP JUMPDEST POP POP POP SWAP4 SWAP3 POP POP POP JUMP JUMPDEST PUSH1 0x0 DUP3 PUSH1 0x1F DUP4 ADD SLT PUSH2 0x1C3B JUMPI PUSH2 0x1C3A PUSH2 0xC94 JUMP JUMPDEST JUMPDEST DUP2 MLOAD PUSH2 0x1C4B DUP5 DUP3 PUSH1 0x20 DUP7 ADD PUSH2 0x1BBD JUMP JUMPDEST SWAP2 POP POP SWAP3 SWAP2 POP POP JUMP JUMPDEST PUSH1 0x0 PUSH1 0x20 DUP3 DUP5 SUB SLT ISZERO PUSH2 0x1C6A JUMPI PUSH2 0x1C69 PUSH2 0xC28 JUMP JUMPDEST JUMPDEST PUSH1 0x0 DUP3 ADD MLOAD PUSH8 0xFFFFFFFFFFFFFFFF DUP2 GT ISZERO PUSH2 0x1C88 JUMPI PUSH2 0x1C87 PUSH2 0xC2D JUMP JUMPDEST JUMPDEST PUSH2 0x1C94 DUP5 DUP3 DUP6 ADD PUSH2 0x1C26 JUMP JUMPDEST SWAP2 POP POP SWAP3 SWAP2 POP POP JUMP INVALID LOG2 PUSH5 0x6970667358 0x22 SLT KECCAK256 SELFDESTRUCT STOP SAR 0xCF 0xC8 BYTE DUP7 SWAP11 PUSH10 0x2376EB4E5FBF942FDF8E PUSH13 0x2F97D354D041D0F3DB58129164 PUSH20 0x6F6C634300081300330000000000000000000000 "},"methodIdentifiers":{"owner()":"8da5cb5b","profitRecipitent()":"00affb73","receiveFlashLoan(address[],uint256[],uint256[],bytes)":"f04f2707","renounceOwnership()":"715018a6","startArbitrage(address,uint256,address[],address[],address[])":"17c7c23a","transferOwnership(address)":"f2fde38b","vault()":"fbfa77cf","withdrawProfit(address)":"24e26241"}}}}}